:020000040800F2
:1000000000800020252600086125000867250008DB
:1000100000000000000000000000000000000000E0
:100020000000000000000000000000006D25000836
:10003000000000000000000077250008812500086E
:100040007526000875260008752600087526000824
:100050007526000875260008752600088F250008FB
:1000600075260008A12500087526000875260008D9
:10007000752600087526000875260008B9250008B1
:10008000D125000875260008752600087526000889
:10009000E925000875260008752600087526000861
:1000A00075260008752600087526000875260008C4
:0C00B000012600087526000875260008CF
:1000BC0010B5064C2378002B07D1054B002B02D032
:1000CC00044800E000BF0123237010BD5400002041
:1000DC00000000005C6A0008044B10B5002B03D034
:1000EC000349044800E000BF10BDC04600000000FA
:1000FC00580000205C6A0008002243088B4274D32D
:10010C0003098B425FD3030A8B4244D3030B8B420C
:10011C0028D3030C8B420DD3FF22090212BA030C15
:10012C008B4202D31212090265D0030B8B4219D3F6
:10013C0000E0090AC30B8B4201D3CB03C01A524116
:10014C00830B8B4201D38B03C01A5241430B8B425E
:10015C0001D34B03C01A5241030B8B4201D30B0347
:10016C00C01A5241C30A8B4201D3CB02C01A52416E
:10017C00830A8B4201D38B02C01A5241430A8B4231
:10018C0001D34B02C01A5241030A8B4201D30B021A
:10019C00C01A5241CDD2C3098B4201D3CB01C01A34
:1001AC00524183098B4201D38B01C01A524143093E
:1001BC008B4201D34B01C01A524103098B4201D32C
:1001CC000B01C01A5241C3088B4201D3CB00C01A99
:1001DC00524183088B4201D38B00C01A5241430811
:1001EC008B4201D34B00C01A5241411A00D2014636
:1001FC00524110467047FFE701B5002000F006F8A9
:10020C0002BDC0460029F7D076E770477047C0465C
:10021C0070B500220C4B04000D0000F0F5FE002818
:10022C0004D12000290000F055FE70BD064B0022C1
:10023C002000290000F0CCFA00F04CFE80231B06B5
:10024C009C466044F1E7C0460000E041F0B54546ED
:10025C00DE4657464E46E0B51F000B031B0B9B4674
:10026C004D00CB0F04009146984687B06D0D00D120
:10027C00CDE1CE4B9D4200D1E9E15A46430FD2006D
:10028C001343802212041A43C3009A46C84B934668
:10029C009C4600230026654400933C037B004846A3
:1002AC00240B5B0DFF0F002B00D189E1BF4A934259
:1002BC0019D0420FE4002243802424041443BC4A86
:1002CC0000219446424663445B190193019B7A409A
:1002DC000133C000D2B202930A2E1CDD3A000B2E61
:1002EC005ED0474656E04946B04B2143EB1801938C
:1002FC0000292AD18020022200012B0084461643BB
:10030C00424663447A40D2B202930A2E00DD31E2B7
:10031C00002000240221022E26DC013E012E52D8A0
:10032C0002294CD0012900D018E10023002400251B
:10033C001B052343D20713432800190007B0F0BC58
:10034C00BB46B246A946A046F0BD80210322090156
:10035C002B008C461643424663447A40D2B2029339
:10036C000A2E00DD28E203210125B540AC46A62665
:10037C006346F600354033420BD19026B60033422B
:10038C0018D1B93EFF3E1E421DD0A34682460091B5
:10039C0000E0170000993A00022910D05C46504644
:1003AC000329BFD180231B031C43240305007F4B6F
:1003BC00240BBDE7802400227C4B2403B8E70024E7
:1003CC0000257A4BB4E753461E04360C1F0C330041
:1003DC00010C0004000C4343984603007B439946F0
:1003EC0033004B439C4643460D001B0C9A467D4301
:1003FC00CC44D4440095E14504D980235B02994652
:10040C004D44009563461B0C1D0063461B049C4623
:10041C0043461B041B0C9846634643440393230C2E
:10042C00984633002404240C63439C4623007B43EE
:10043C00994643465E435F434E446346B2461E0CA8
:10044C005644B14503D980235B0299464F44330C83
:10045C0099463B004B4405936346AC461F043F0C46
:10046C003604F619B444634604935B461B0C9C4655
:10047C005B461F043F0C3B00434399466346434392
:10048C009A464B4660461B0C9B4648437943514465
:10049C0059448A4503D980235B029A4650440B0C7D
:1004AC009A464B461B041B0C99463B0063430904BC
:1004BC0045464944994663465C436B439C464B46D0
:1004CC001B0C98466F433F1947445044BC4203D918
:1004DC0080235B029846C444049B009D9846454487
:1004EC00B542B641734298464B461E04059B3C04EC
:1004FC009946360CA4194C44A14683466E18C14447
:10050C008E428941CB445D4649426D189C42A441C0
:10051C00C1459B41834580418D4289415B42644288
:10052C001C434042039B4942014370023F0C184359
:10053C00E419471EB84164186444F60D6102304357
:10054C00EC0D6E020C433043C90100D4F1E00121E3
:10055C00430801400B43E007184364081549029B0C
:10056C008C466344002B00DC97E0410709D00F2137
:10057C000140042905D0011D8142804140422418CC
:10058C000800E10106D58021C9008C460A4B1C40AD
:10059C00029B634409498B4200DD10E76107C508E3
:1005AC0064025B050D43240B5B0DC1E6FF070000E5
:1005BC0001FCFFFFFF030000FFFFFFFEFE07000032
:1005CC004B46234359D0002C00D1A3E0200000F06F
:1005DC0025FD010003000B391D22521A4946180053
:1005EC00D1404A4608388240844010000C43744A7B
:1005FC00EB1A9446424663440193019B7A400133C3
:10060C000021D2B202930A2E00DD67E683E65B4638
:10061C0003439A462AD05B46002B6DD0584600F017
:10062C00FDFC010003000B391D22521A2100180099
:10063C005D46D140083885400A0084402A439346E1
:10064C00A2465F4D0026ED1A0023009325E65B467B
:10065C0003439A4605D100239B4602330826009398
:10066C001BE6032382460C26009316E600239B46CA
:10067C0001330426002500930FE642460133019511
:10068C001E43019B7A400133002400200121D2B289
:10069C0002930A2E00DD21E63DE60121C91A382914
:1006AC0000DD42E61F2947DD1F2625007642F31A9E
:1006BC00DD402B00202905D04249029D8C46654423
:1006CC00AC402043411E8841184307231D000024E1
:1006DC00054003424AD00F2300240340042B42D090
:1006EC00031D8342804140422418180023023AD54E
:1006FC000123002400251BE600F090FC0100030000
:10070C00153120331C298FDD083800228440924695
:10071C00A34696E700F082FC01000300153120335C
:10072C001C2900DC58E702004C46083A0020944093
:10073C005DE7019B029311E7234B26009C460300C7
:10074C00029DCB406544AE401E430300AB40581E97
:10075C00834130001843CC404307C7D00F230340DC
:10076C00042BBDD1C2E765076402240BC00800232B
:10077C000543DDE5002502230F2E0CD180245B46BA
:10078C00240323420ED021420CD10C4324033A0003
:10079C000E4B240BCCE50B2E00D0A2E58B46AA46C3
:1007AC000093F7E580245B4624031C432403424654
:1007BC005546064B240BBBE54D4621000323DBE7D6
:1007CC000DFCFFFF3E0400001E040000FF070000AC
:1007DC00F0B557464E464546DE46E0B50D000400E2
:1007EC00190010002B035B0A620F1A43E3000C0381
:1007FC00640A470F2743D04C6E00914683B04A00E1
:10080C00C0009846A246760DED0F520DC90F01900F
:10081C00A24200D1B9E0012461408B468D4200D147
:10082C008DE0B41AA446002C00DCB7E0002A00D1FD
:10083C00CBE0C14A964200D186E1802212041743D4
:10084C006246382A00DDA4E11F2A00DD1DE2614664
:10085C0020223C00521A010090409440421E9041CC
:10086C006246A0466446D7404A46E1404446D21B05
:10087C0091460C4304431C1BA34292414B465242EB
:10088C009B1A9A4653461B0200D42BE153465A023C
:10089C00530A9A465346002B00D166E1504600F0AD
:1008AC00BDFB0300083B20222000D21A5146D04049
:1008BC00994002009C400A439E4200DD64E19B1B70
:1008CC00591C1F2900DDFEE02023100026005B1AB6
:1008DC009C409840CE40CA40631E9C413043924697
:1008EC0000260443630709D00F232340042B05D0B3
:1008FC00231DA342A4416442A2441C0053461B0284
:10090C0000D4F2E08C4B01369E4200D10FE15346ED
:10091C008A49E4080B4019005B07234372054C021B
:10092C00240B520D12052243ED072A431800110027
:10093C0003B0F0BCBB46B246A946A046F0BDB41A03
:10094C00A446002C59DD002A00D1B0E0564500D158
:10095C00FAE08022120417436246382A00DDD4E004
:10096C001F2A00DCC0E13900203AD1406246202A1F
:10097C0006D064464022121B3C0094400443019470
:10098C00019C621E94410C43C3E03C0004432BD0F9
:10099C008B468D422ED06A4CA446B4446446002C3F
:1009AC005FD0941BA446002E00D020E14C461C4383
:1009BC0000D1C7E161464C1E012900D123E25E4DF6
:1009CC00AC4500D1D8E1A4461AE13A00024300D16B
:1009DC00E4E02200013A012C00D1C3E156498C42DB
:1009EC0000D1B1E094462BE7012461408B468D4247
:1009FC0000D016E752498C46B4446446002C00D112
:100A0C00D3E0911B8C46002E00D15EE14A498A420C
:100A1C0000D1BEE180214C4609040C43A14661463D
:100A2C00382900DDBAE11F2900DD27E22024641AF1
:100A3C004946A1401E0088466146A340CE4041462F
:100A4C005C1EA341314319430C0063464946D9400F
:100A5C007F18241884429B415B429A461600BA4484
:100A6C005DE0384C721C224200D0DFE04A461A434B
:100A7C00002E00D05CE1002A00D1CFE13A00024305
:100A8C0000D17FE11C1A4A46A3428941D21B49423C
:100A9C00521A9246120200D40AE2C41AA0428041B1
:100AAC004B464042FF1A3B1A9A465D461AE73A00FB
:100ABC00024373D02200013A012C00D1CBE0544503
:100ACC0042D0944648E710001F3BD840202903D061
:100ADC0040235B1A9A401443631E9C41002300265A
:100AEC009A460443630700D0FEE65246E3085207D9
:100AFC0013435246B446D2080F498C452AD01203F0
:100B0C00140B62465205520D0CE73C000443621E66
:100B1C009441E4189C42924152424A4492465346B4
:100B2C001B02DFD5044B01369E4200D0A0E0320000
:100B3C0000240023F6E6C046FF070000FFFF7FFFFE
:100B4C0001F8FFFFFE070000DB084A46520713437B
:100B5C004A46D2081900114300D1B5E18024240380
:100B6C0014432403D54A240BDCE6200000F056FA8B
:100B7C00030018331F2B00DC95E622000838824056
:100B8C0000249E4200DC9AE6F61ACD4B1A4092469F
:100B9C00A8E63C000443621E94416CE64A46DB081E
:100BAC00520713434A46D208A6E7C64C721C22428F
:100BBC0000D0ACE04A461A43002E00D005E1002AD2
:100BCC0000D156E13A00024300D1DBE01C189C42F4
:100BDC009B414F44BA465B429A4453461B0200D495
:100BEC0080E75246B64B01261A4092467AE7B34C40
:100BFC00A24200D1C0E080244D4624042543A946DE
:100C0C006446382C53DC61461F2C00DDCDE02025DA
:100C1C001E002D1B4C46AB40AC40CE405D1EAB4184
:100C2C00344323434C46CC403F1B45E04A461C1AF8
:100C3C00D11BA3429241524292460A005146521A8B
:100C4C009246120200D583E05346234300D021E69E
:100C5C000022002553E71C189C429B414F44BA4686
:100C6C005B429A44534601261B0200D43AE7022603
:100C7C005246934B01211A401300214062080A434B
:100C8C00DC075B089A4614432CE63900203AD14025
:100C9C006246202A06D064464022121B3C00944037
:100CAC0004430194019C621E94410C43E3E54946C4
:100CBC0019430B005C1EA341C41AA0429B415B422A
:100CCC00FB1A9A465D461600DCE54946194300D1ED
:100CDC00AEE0614664460139012C00D1E0E0774C6E
:100CEC00A44556D08C469AE6614620223C00521A06
:100CFC00944001009040A0466446421E90416246DA
:100D0C00E1404446D7400C430443B94401E76B49E6
:100D1C008A4200D10CE7181898429B414F445B4221
:100D2C00FB18DC0740085B089A4616000443D9E61A
:100D3C00002A00D081E03B0003431DD18022002516
:100D4C0012030BE7C0087B075D460343FA08D3E6A2
:100D5C00C41AA04280414B464042FF1A3B1A9A46A5
:100D6C005D4697E51C1A4A46A3429B41D71B5B4242
:100D7C00FB1A9A46012685E5C0087B075D460343AE
:100D8C00FA08E7E64A46DB08520713434A46D208FC
:100D9C00B5E6C0087B070343FA08DBE6494619436E
:100DAC000B00591E8B411C0053E64D46203CE54080
:100DBC00202905D04024641A4946A1400B4398468B
:100DCC0043465C1EA3412B4376E7002AE1D03A0050
:100DDC00DB08024300D1B8E64A465207802413438D
:100DEC004A462403D208224207D0FE08264204D1E8
:100DFC005D463200C3087F073B43590FDB004907B0
:100E0C00DB080B43A6E6C41AA04280414B46404285
:100E1C00FF1A3B1A9A465D46012633E53B00034315
:100E2C0000D115E7C0087B075D460343FA0866E668
:100E3C00C0087B070343FA085EE63A00DB0802436E
:100E4C0000D182E64A465207802413434A462403C3
:100E5C00D208224207D0FE08264204D15D46320059
:100E6C00C3087F073B43590FDB00DB0849070B43E3
:100E7C0070E6C0087B070343FA0840E64C4620396D
:100E8C00CC406146202906D066464021891B4E463F
:100E9C008E40334398464346591E8B411C43D8E53C
:100EAC001C18844280414F44BA4640428244D9E6E1
:100EBC005346234300D1CBE614E6C046FF0700009F
:100ECC00FFFF7FFFFE0700000023014A1C0029E5FD
:100EDC00FF0700000A0030B5134C5300090305004E
:100EEC00090B00205B0DD20FA34204DD0F48834297
:100EFC0002DD0F4BD01830BD8020400301430D485C
:100F0C00C01A1F2808DD0C48C31AD9400B005842E0
:100F1C00002AF0D11800EEE7084CC540A446634403
:100F2C0099400B002B43F2E7FE0300001D04000068
:100F3C00FFFFFF7F3304000013040000EDFBFFFFF5
:100F4C0070B5002816D0C317C5185D40C40F280013
:100F5C0000F064F8114B1B1A0A2816DC02002E0054
:100F6C00153296400B22121AD5405B052D032D0B22
:100F7C005B0D03E000240023002500261B052B43FA
:100F8C00E40723433000190070BD0B3885405B0526
:100F9C002D0300262D0B5B0DF0E7C0461E04000050
:100FAC008446100062468C461900634600E0C04639
:100FBC001FB500F0F9F8002801D40021C8421FBD6C
:100FCC0010B500F049F84042013010BD10B500F0EA
:100FDC00EBF8002801DB002010BD012010BDC0463D
:100FEC0010B500F0E1F8002801DD002010BD012053
:100FFC0010BDC04610B500F071F8002801DC0020CF
:10100C0010BD012010BDC04610B500F067F80028D7
:10101C0001DA002010BD012010BDC0461C210123A7
:10102C001B04984201D3000C10391B0A984201D3BF
:10103C00000A08391B09984201D30009043902A29D
:10104C00105C40187047C046040302020101010104
:10105C000000000000000000F0B54E464546DE469C
:10106C0057469046E0B517001A03120B050084464C
:10107C0019480E034C0091465A00DB0F9B46360B69
:10108C00640DC90F520D844219D0824210D0012038
:10109C0094420ED14E450CD10120C44509D159457D
:1010AC0017D0002C05D130002843431E984100E096
:1010BC000120F0BCBB46B246A946A046F0BD3300A9
:1010CC0001202B43F5D1A242F3D14B463B43F0D147
:1010DC00E2E70020EDE7C046FF070000F0B5474609
:1010EC00CE460400180016001B031B0B2D4D4A00A6
:1010FC00994680B543000F03A446B0463F0B520DF2
:10110C00C90F5B0DC00FAA4221D0AB4213D0002AED
:10111C0022D13C43002B02D14D462E4322D0002C31
:10112C0010D0814222D00220013908400138C0BCC5
:10113C00B946B046F0BD4D462E4329D1002AF0D118
:10114C003C43EED10028F2D101204042EFE73D00B4
:10115C0025431DD19342EED0002BE2D14C462643C1
:10116C00DFD1E0E70020002CE1D0DCE79A420ADC7A
:10117C00E8DB4F45D7D80ED000204F45D7D20029F9
:10118C00E2D00800D3E74342584140000138CEE793
:10119C0002204042CBE7C445C5D80020C445C6D286
:1011AC00EDE7C046FF070000F0B54746CE46040009
:1011BC00180016001B031B0B2C4D4A00994680B5DA
:1011CC0043000F03A446B0463F0B520DC90F5B0DF5
:1011DC00C00FAA420DD0AB4210D0002A27D13C43FD
:1011EC00002B11D14D462E430ED10020002C15D0D2
:1011FC000EE03D00254310D1934218D14D462E43AD
:10120C000BD1002A02D13C43002C0BD0814214D0CC
:10121C00022001390840013800E00220C0BCB94668
:10122C00B046F0BD0028F9D101204042F6E7002B72
:10123C00ECD14C462643E9D1EAE79A4204DD43421D
:10124C00584140000138E9E79A42EBDB4F45DFD8C3
:10125C0006D000204F45E1D20029E5D00800DDE79B
:10126C00C445D5D80020C445D8D2F5E7FF07000007
:10127C0080B500AF01F0FAF900F09EF800F002FB27
:10128C0000F0E2FA00F0B0FA00F0EEF800F000FA2C
:10129C0000F0AAF900F052FA374B180003F04AF8A4
:1012AC00364B180003F046F83549364B042218002B
:1012BC0004F016FA344B180001F03CFA334BAF2211
:1012CC005A63324BAF22DA63304BAF225200DA62F0
:1012DC002F4B0021180003F0BDF92D4B08211800ED
:1012EC0003F0B8F92B4B1B68002B02D000F036FC36
:1012FC002FE0294B1B68002B02D000F05FFC28E08C
:10130C00264B1B68002B02D000F088FC21E0244BFC
:10131C001B68002B02D000F0A7FC1AE0214B1B68C5
:10132C00002B02D000F0C6FC13E01F4B1B68002BF7
:10133C0002D000F0DDFC0CE01C4B1B68002B02D033
:10134C0000F0F4FC05E01A4B1B68002B01D000F0F8
:10135C000BFD184B1B68002BC4D00D4B0021180043
:10136C0003F078F90A4B0821180003F073F9114BBC
:10137C0000221A60B6E7C04664010020AC010020D0
:10138C00C0020020F4010020B80B0000002C01402A
:10139C00D4000020C4020020C8020020CC0200208F
:1013AC00D0020020D4020020D8020020DC02002051
:1013BC00E0020020E402002090B599B000AF2C248C
:1013CC003B19180034231A00002105F0FEFA1C23E7
:1013DC00FB18180010231A00002105F0F6FA3B0048
:1013EC0018001C231A00002105F0EFFA21007B18CD
:1013FC0002221A607B180122DA607B1810221A6113
:10140C007B1800225A627B18180001F07BFE031E29
:10141C0001D000F031FF1C217B1807221A607B18C9
:10142C0000225A607B1800229A607B180022DA6036
:10143C007B180021180002F0EBF9031E01D000F01C
:10144C001BFF3B0002221A603B000022DA603B00CB
:10145C00180002F049FB031E01D000F00DFFC0463E
:10146C00BD4619B090BD000080B596B000AF4823C2
:10147C00FB18180010231A00002105F0A6FA4023CF
:10148C00FB18180008231A00002105F09EFA2423EB
:10149C00FB1818001C231A00002105F096FA3B1DBE
:1014AC00180020231A00002105F08FFA4C4B4D4AEE
:1014BC001A604B4B07225A60494B00229A60484BEA
:1014CC00FA22D200DA60464B00221A61444B002209
:1014DC005A61434B80229A61414B180002F0DAFEAC
:1014EC00031E01D000F0C8FE48217B188022520157
:1014FC001A607A183A4B1100180003F003FB031E14
:10150C0001D000F0B9FE364B180002F093FF031E19
:10151C0001D000F0B1FE40217B1800221A607B182C
:10152C0000225A607A182E4B1100180003F018FF95
:10153C00031E01D000F0A0FE24217B1860221A604B
:10154C007B18FA2292005A607B1800229A607B1852
:10155C000022DA607B1800221A617B1800225A6183
:10156C007B1800229A6179181D4B0022180003F099
:10157C0003FA031E01D000F07FFE2423F918184B48
:10158C000822180003F0F8F9031E01D000F074FED5
:10159C003B1D00221A603B1D00225A603B1D00229D
:1015AC009A603B1D0022DA603B1D00221A613B1D34
:1015BC00802292015A613B1D0022DA613A1D084BD0
:1015CC001100180003F02AFF031E01D000F054FE96
:1015DC00034B180000F0EEFEC046BD4616B080BDB1
:1015EC00D4000020002C014080B586B000AF082349
:1015FC00FB18180010231A00002105F0E6F93B0037
:10160C00180008231A00002105F0DFF91E4B802278
:10161C00D2051A601C4B07225A601B4B00229A60A1
:10162C00194B1A4ADA60184B00221A61164B002229
:10163C009A61154B180002F02DFE031E01D000F02C
:10164C001BFE08217B18802252011A607A180E4B5F
:10165C001100180003F056FA031E01D000F00CFE26
:10166C003B0000221A603B0000225A603A00064BF5
:10167C001100180003F074FE031E01D000F0FCFDF5
:10168C00C046BD4606B080BD1C010020409C000039
:10169C0080B586B000AF0823FB18180010231A0081
:1016AC00002105F092F93B00180008231A000021D4
:1016BC0005F08BF91E4B1F4A1A601D4B07225A600E
:1016CC001B4B00229A601A4B1B4ADA60184B002203
:1016DC001A61174B80229A61154B180002F0DAFD43
:1016EC00031E01D000F0C8FD08217B188022520196
:1016FC001A607A180E4B1100180003F003FA031E3F
:10170C0001D000F0B9FD3B0000221A603B00002222
:10171C005A603A00064B1100180003F021FE031E1C
:10172C0001D000F0A9FDC046BD4606B080BDC04644
:10173C006401002000040040409C000080B586B08D
:10174C0000AF0823FB18180010231A00002105F025
:10175C003CF93B00180008231A00002105F035F96C
:10176C001F4B204A1A601E4B07225A601C4B00224A
:10177C009A601B4BC822DA60194B00221A61184B75
:10178C0000225A61164B80229A61154B180002F008
:10179C0081FD031E01D000F06FFD08217B18802213
:1017AC0052011A607A180E4B1100180003F0AAF9B6
:1017BC00031E01D000F060FD3B0000221A603B00CC
:1017CC0000225A603A00064B1100180003F0C8FDC5
:1017DC00031E01D000F050FDC046BD4606B080BDD2
:1017EC00AC0100200040014080B500AF144B154AFD
:1017FC001A60134BE12252025A60114B00229A607C
:10180C000F4B0022DA600E4B00221A610C4B0C229B
:10181C005A610B4B00229A61094B0022DA61084B8A
:10182C0000221A62064B00225A62054B180003F084
:10183C0063FE031E01D000F01FFDC046BD4680BDF7
:10184C00F40100200044004080B582B000AF0C4B86
:10185C005A690B4B01210A435A61094B5B690122FE
:10186C0013407B607B6800220021092001F032F8D4
:10187C00092001F044F8C046BD4602B080BDC04608
:10188C000010024090B58BB000AF14243B19180027
:10189C0014231A00002105F098F88C4B5A698B4BD5
:1018AC00802109030A435A61884B5A6980231B0320
:1018BC0013403B613B69854B5A69844B8021C903BA
:1018CC000A435A61814B5A698023DB031340FB6046
:1018DC00FB687E4B5A697D4B802189020A435A6111
:1018EC007A4B5A6980239B021340BB60BB68774BD1
:1018FC005A69764B8021C9020A435A61734B5A6963
:10190C008023DB0213407B607B68AC23190190239E
:10191C00DB050022180001F0BBFB6D4B0022B0214F
:10192C00180001F0B5FB6B496B4B0022180001F05D
:10193C00AFFB3B19C0221A603B1901225A603B19BC
:10194C0000229A603B190022DA603A199023DB05D9
:10195C001100180001F024FA3B1930221A603B19CF
:10196C0001225A603B1902229A603B190022DA606C
:10197C003B19574A1900100001F012FA3B19574A4B
:10198C001A603B1901225A603B1902229A603B19DA
:10199C000022DA603B19504A1900100001F000FADD
:1019AC0021007B18802212021A600C003B190222C3
:1019BC005A603B1900229A603B190322DA603B19EA
:1019CC0000221A613B19444A1900100001F0E8F991
:1019DC0021007B1840221A607B18842292035A60E3
:1019EC000C003B1901229A603B19394A190010006E
:1019FC0001F0D6F93B1980221A603B1901225A607A
:101A0C003B1901229A603B190022DA603B19304ADB
:101A1C001900100001F0C4F921007B18F0225201CA
:101A2C001A600C003B1900225A603B1902229A6082
:101A3C003B19274A1900100001F0B2F921007B185C
:101A4C00A02212011A600C003B1901225A603B19AA
:101A5C0002229A603B190022DA603A199023DB05C6
:101A6C001100180001F09CF93B1910221A603B1967
:101A7C0001225A603B1900229A603B190022DA605D
:101A8C003B19154A1900100001F08AF921007B1846
:101A9C00C02252001A607B1801225A607B18012266
:101AAC009A607B180022DA607B180B4A1900100030
:101ABC0001F076F900220021072000F00BFF07202F
:101ACC0000F01DFFC046BD460BB090BD001002409B
:101ADC0000080048D70F000000040048470E000023
:101AEC0080B582B000AF0200BB1D1A80BB1D1B88E5
:101AFC00402B14D1184B9B79082B09D9164BDB7949
:101B0C000133DAB2144BDA71134B00229A711EE0D6
:101B1C00114B9B790133DAB20F4B9A7117E0BB1D55
:101B2C001B88802B13D10C4B1B79082B09D90A4B22
:101B3C005B790133DAB2084B5A71074B00221A71E8
:101B4C0005E0054B1B790133DAB2034B1A71C04621
:101B5C00BD4602B080BDC046E802002080B500AF93
:101B6C00144B0021180002F075FD124B08211800CF
:101B7C0002F070FD802399009023DB0501221800F0
:101B8C0001F086FA802319019023DB05012218004D
:101B9C0001F07EFA074B0021180002F0A3FC054B64
:101BAC000821180002F09EFC034B00221A60C0466C
:101BBC00BD4680BDD4000020C402002080B500AF1B
:101BCC00144B0021180002F045FD124B082118009F
:101BDC0002F040FD802399009023DB0500221800C1
:101BEC0001F056FA802319019023DB05002218001E
:101BFC0001F04EFA074B0021180002F073FC054B64
:101C0C000821180002F06EFC034B00221A60C0463B
:101C1C00BD4680BDD4000020C802002080B500AFB6
:101C2C00802399009023DB050122180001F030FA83
:101C3C00802319019023DB050022180001F028FAFB
:101C4C00074B0021180002F04DFC054B0821180031
:101C5C0002F048FC034B00221A60C046BD4680BD12
:101C6C00D4000020CC02002080B500AF8023990066
:101C7C009023DB050022180001F00AFA80231901D9
:101C8C009023DB050122180001F002FA074B00211A
:101C9C00180002F027FC054B0821180002F022FC6A
:101CAC00034B00221A60C046BD4680BDD400002004
:101CBC00D002002080B500AF0B4B0821180002F0B9
:101CCC00C9FC802399009023DB050122180001F048
:101CDC00DFF9054B0021180002F004FC034B002235
:101CEC001A60C046BD4680BDD4000020D40200203E
:101CFC0080B500AF0B4B0821180002F0ABFC802321
:101D0C0099009023DB050022180001F0C1F9054B66
:101D1C000021180002F0E6FB034B00221A60C046BB
:101D2C00BD4680BDD4000020D802002080B500AF95
:101D3C000B4B0021180002F08DFC8023190190231D
:101D4C00DB050122180001F0A3F9054B082118004E
:101D5C0002F0C8FB034B00221A60C046BD4680BD92
:101D6C00D4000020DC02002080B500AF0B4B00211A
:101D7C00180002F06FFC802319019023DB05002270
:101D8C00180001F085F9054B0821180002F0AAFB98
:101D9C00034B00221A60C046BD4680BDD400002013
:101DAC00E0020020B0B500AF174BAF2252001A6012
:101DBC00154B1B681800FFF7C3F80022134BFEF7F6
:101DCC0045FA02000B00124C10001900FEF720FA25
:101DDC00030063630C4B1B681800FFF7B1F800227B
:101DEC000A4BFEF733FA02000B00094C10001900E5
:101DFC00FEF70EFA0300E363034B1A68044BDA6236
:101E0C00C046BD46B0BDC046080000200000E03F03
:101E1C00002C014080B582B000AF786059495A4817
:101E2C006423042203F0BCFBFFF7BCFF574A554B5D
:101E3C001100180004F0D1FD031E0BD0544B0122ED
:101E4C001A60544B180002F0C7FA534B180002F0FA
:101E5C0071FA93E0514A4B4B1100180004F0BDFD90
:101E6C00031E0BD04E4B01221A604A4B180002F095
:101E7C00B3FA494B180002F05DFA7FE0494A414B36
:101E8C001100180004F0A9FD031E0BD0464B0122D3
:101E9C001A60404B180002F09FFA3F4B180002F0FA
:101EAC0049FA6BE0414A374B1100180004F095FDDC
:101EBC00031E0BD03E4B01221A60364B180002F069
:101ECC008BFA354B180002F035FA57E0394A2D4B96
:101EDC001100180004F081FD031E0BD0364B0122BB
:101EEC001A602C4B180002F077FA2B4B180002F0FA
:101EFC0021FA43E0314A234B1100180004F06DFD28
:101F0C00031E0BD02E4B01221A60224B180002F03C
:101F1C0063FA214B180002F00DFA2FE0294A194BF5
:101F2C001100180004F059FD031E0BD0264B0122A2
:101F3C001A60184B180002F04FFA174B180002F0F9
:101F4C00F9F91BE0214A0F4B1100180004F045FD74
:101F5C00031E0BD01E4B01221A600E4B180002F010
:101F6C003BFA0D4B180002F0E5F907E0094B18009D
:101F7C0002F0E0F9084B180002F02EFAC046BD46FC
:101F8C0002B080BDC0020020F4010020746A000879
:101F9C00C40200201C010020640100207C6A00089F
:101FAC00C8020020846A0008CC0200208C6A000859
:101FBC00D0020020946A0008D40200209C6A000819
:101FCC00E0020020A46A0008DC020020AC6A0008D1
:101FDC00D802002090B587B000AF78600C243B1974
:101FEC000A4A03CA03C312881A807B68002B07DBDA
:101FFC007B68092B04DC3A197B68D3181B7800E04A
:10200C00FF231800BD4607B090BDC046B46A000857
:10201C00B0B584B000AF78607A68814B9A425BD1DE
:10202C00804B1A68804B1B689A423FDA7F49804884
:10203C006423142203F0B4FA7A4B1B681800FEF7E1
:10204C007FFF7C4A7C4BFEF701F902000B0010006D
:10205C001900FEF73FFF0200724B1A60714B1B68B0
:10206C001800FEF76DFF0022744BFEF7EFF802002C
:10207C000B00734C10001900FEF7CAF803006363E1
:10208C00684B1B681800FEF75BFF00226B4BFEF7DA
:10209C00DDF802000B006A4C10001900FEF7B8F8CE
:1020AC000300E3635F4B1A68654BDA625D4B1A6899
:1020BC005D4B1B689A420FDB62495D486423142216
:1020CC0003F06EFA604B0021180002F0C3FA5E4B6D
:1020DC000821180002F0BEFA7A685C4B9A4245D18E
:1020EC00504B1A685A4B1B689A423FDD594950486D
:1020FC006423142203F054FA4A4B1B681800FEF7B1
:10210C001FFF554A554BFEF7A1F802000B001000BB
:10211C001900FEF7DFFE0200424B1A60414B1B68B0
:10212C001800FEF70DFF0022444BFEF78FF802005B
:10213C000B00434C10001900FEF76AF803006363B0
:10214C00384B1B681800FEF7FBFE00223B4BFEF7DA
:10215C007DF802000B003A4C10001900FEF758F8FD
:10216C000300E3632F4B1A68354BDA627A683C4BF9
:10217C009A4251D110239BB23A480122190000F027
:10218C0087FF394B1B781A00384B9B5C0F257C1949
:10219C001800FFF71FFF0300237029007B187A1823
:1021AC001278D2431A700C203B187A1812781A70D5
:1021BC002D4B1B781A0001239340DAB23B185A704E
:1021CC0039182B486423022201F08EFD10239BB298
:1021DC0024480022190000F05BFF234B1B78032BD3
:1021EC000AD9244B1B78032B06D8224B1B780133BE
:1021FC00DAB2204B1A700FE01B4B1B780133DAB2AA
:10220C00194B1A70184B1B78082B02D1164B002255
:10221C001A70184B00221A70C046BD4604B0B0BDEF
:10222C001C010020080000200400002020000020D9
:10223C00F40100209A9999999999F13F0000E03F97
:10224C00002C014034000020D40000206401002048
:10225C00000000200C000020CDCCCCCCCCCCEC3F32
:10226C00AC01002000040048F0020020E80200202D
:10227C0070000020F102002080B500AF72B6C0469D
:10228C00FEE7000080B582B000AF0F4B9A690E4B91
:10229C0001210A439A610C4B9B69012213407B601C
:1022AC007B68094BDA69084B802149050A43DA61DE
:1022BC00054BDA6980235B0513403B603B68C046E5
:1022CC00BD4602B080BDC0460010024080B586B04D
:1022DC0000AF78607B681B68324A93420ED1324B58
:1022EC009A69314B802109010A439A612E4B9A69F4
:1022FC0080231B0113407B617B694FE07B681A686C
:10230C008023DB059A4214D1274BDA69264B012135
:10231C000A43DA61244BDB69012213403B613B69C0
:10232C00002200210F2000F0D5FA0F2000F0E7FA70
:10233C0034E07B681B681D4A934214D11A4BDA694E
:10234C00194B02210A43DA61174BDB690222134055
:10235C00FB60FB6800220021102000F0BBFA10206B
:10236C0000F0CDFA1AE07B681B68114A934215D134
:10237C000D4B9A690C4B802149020A439A610A4B16
:10238C009A6980235B021340BB60BB68002200216A
:10239C00142000F09FFA142000F0B1FAC046BD469C
:1023AC0006B080BD002C014000100240000400402B
:1023BC000040014090B589B000AF78600C243B1907
:1023CC00180014231A00002104F0FFFA7B681B6824
:1023DC00164A934225D1164B5A69154B8021890216
:1023EC000A435A61124B5A6980239B021340BB600B
:1023FC00BB683B19A022D2001A6021007B18022274
:10240C005A607B1800229A607B180022DA607B18D5
:10241C0002221A617A189023DB051100180000F0D3
:10242C00BFFCC046BD4609B090BDC046002C014063
:10243C000010024090B58BB000AF786014243B19AB
:10244C00180014231A00002104F0BFFA7B681B68E3
:10245C003B4A934270D13B4BDA693A4B802189025B
:10246C000A43DA61374BDA6980239B0213403B61E4
:10247C003B69344B5A69334B802189020A435A61B8
:10248C00304B5A6980239B021340FB60FB68210090
:10249C007B180C221A607B1802225A607B180022CF
:1024AC009A607B180322DA607B1801221A617A1871
:1024BC009023DB051100180000F072FC224B234A1C
:1024CC001A60214B00225A601F4B00229A601E4B4F
:1024DC008022DA601C4B00221A611B4B00225A61CD
:1024EC00194B20229A61184B0022DA61164B180006
:1024FC0000F022FA031E01D0FFF7BEFE144AA823F7
:10250C00D35813490F229343A8228B50104AA82367
:10251C00D3580F4909221343A8228B507B680A4ACF
:10252C005A67094B7A685A62002200211C2000F07D
:10253C00D1F91C2000F0E3F9C046BD460BB090BDAC
:10254C0000440040001002407C02002008000240C1
:10255C000000024080B500AFFEE780B500AFFEE79B
:10256C0080B500AFC046BD4680BD80B500AFC0464B
:10257C00BD4680BD80B500AF00F0C0F8C046BD467A
:10258C0080BD80B500AF402000F0A0FDC046BD4628
:10259C0080BD000080B500AF034B180000F0F7FAC7
:1025AC00C046BD4680BDC0467C02002080B500AF51
:1025BC00034B180002F0CAF8C046BD4680BDC046A9
:1025CC001C01002080B500AF034B180002F0BEF8D0
:1025DC00C046BD4680BDC0466401002080B500AF3A
:1025EC00034B180002F0B2F8C046BD4680BDC04691
:1025FC00AC01002080B500AF034B180003F0C8F805
:10260C00C046BD4680BDC046F401002080B500AF79
:10261C00C046BD4680BD00000D488546FFF7F6FF5D
:10262C000C480D490D4A002302E0D458C450043321
:10263C00C4188C42F9D30A4A0A4C002301E01360F7
:10264C000432A242FBD304F0DFF9FEF711FEFEE7E1
:10265C00008000200000002054000020006B0008C7
:10266C0054000020F8020020FEE7000080B500AF07
:10267C00074B1A68064B10210A431A60032000F01E
:10268C0009F8FFF7FFFD00231800BD4680BDC046CA
:10269C000020024090B583B000AF7860144B1C68EA
:1026AC00144B1B781900FA239800FDF725FD030045
:1026BC0019002000FDF720FD0300180000F02FF991
:1026CC00031E01D001230FE07B68032B0BD8796824
:1026DC0001235B420022180000F0FCF8064B7A68DC
:1026EC001A60002300E001231800BD4603B090BD22
:1026FC0048000020500000204C00002080B500AFA6
:10270C00054B1B781A00054B1B68D218034B1A603B
:10271C00C046BD4680BDC04650000020F4020020DB
:10272C0080B500AF024B1B681800BD4680BDC0468B
:10273C00F402002080B584B000AF7860FFF7F0FFA2
:10274C000300BB607B68FB60FB68013305D00A4B60
:10275C001B781A00FB689B18FB60C046FFF7E0FF74
:10276C000200BB68D31AFA689A42F7D8C046C04632
:10277C00BD4604B080BDC0465000002080B582B07C
:10278C0000AF0200FB1D1A70FB1D1B787F2B09D8B4
:10279C00FB1D1B781A001F231A40044B012191408A
:1027AC000A001A60C046BD4602B080BD00E100E0E0
:1027BC0090B583B000AF02003960FB1D1A70FB1D91
:1027CC001B787F2B28D82F4AFB1D1B785BB29B08EC
:1027DC00C0339B009B58FA1D1278110003220A404B
:1027EC00D200FF2191400A00D2431A4011003B68ED
:1027FC009B01FF221A40FB1D1B781800032303408A
:10280C00DB009A401F48FB1D1B785BB29B080A43F8
:10281C00C0339B001A5031E01B4AFB1D1B7819007A
:10282C000F230B40083B9B0806339B00D318043343
:10283C001B68FA1D1278110003220A40D200FF21F6
:10284C0091400A00D2431A4011003B689B01FF22C1
:10285C001A40FB1D1B78180003230340DB009A4031
:10286C000948FB1D1B781C000F232340083B9B08C9
:10287C000A4306339B00C31804331A60C046BD4696
:10288C0003B090BD00E100E000ED00E080B582B047
:10289C0000AF78607B685A1E80235B049A4201D398
:1028AC00012310E00A4B7A68013A5A6001235B421B
:1028BC0003211800FFF77CFF054B00229A60044BA4
:1028CC0007221A6000231800BD4602B080BDC04626
:1028DC0010E000E080B584B000AFB9607A600F21E1
:1028EC007B18021C1A70BA687B181B785BB211003B
:1028FC001800FFF75DFFC046BD4604B080BD80B533
:10290C0082B000AF0200FB1D1A70FB1D1B785BB27E
:10291C001800FFF733FFC046BD4602B080BD80B53E
:10292C0082B000AF78607B681800FFF7AFFF030040
:10293C001800BD4602B080BD80B584B000AF786091
:10294C000023FB607B68002B01D1012336E07B6800
:10295C002122022199547B681B681B68FB60FB6871
:10296C00184A1340FB607B685A687B689B681A4363
:10297C007B68DB681A437B681B691A437B685B695D
:10298C001A437B689B691A437B68DB691343FA68BB
:10299C001343FB607B681B68FA681A607B6818003D
:1029AC0000F0C4F97B6800229A637B682122012124
:1029BC0099547B6820220021995400231800BD46AD
:1029CC0004B080BD0FC0FFFF80B586B000AFF860CB
:1029DC00B9607A603B601723FB1800221A70FB6801
:1029EC0020229B5C012B01D102234FE0FB682022AB
:1029FC0001219954FB6821229B5CDBB2012B3AD15B
:102A0C00FB68212202219954FB6800229A63FB681F
:102A1C001B681A68FB681B6801218A431A603B68B3
:102A2C007A68B968F86800F054F9FB68DB6A002B27
:102A3C0008D0FB681B681A68FB681B680E210A43E8
:102A4C001A600FE0FB681B681A68FB681B680A2198
:102A5C000A431A60FB681B681A68FB681B68042130
:102A6C008A431A60FB681B681A68FB681B680121A3
:102A7C000A431A6007E0FB682022002199541723AF
:102A8C00FB1802221A701723FB181B781800BD467E
:102A9C0006B080BD80B582B000AF78607B68212223
:102AAC009B5CDBB2022B08D07B6804229A637B68A8
:102ABC00202200219954012320E07B681B681A68AE
:102ACC007B681B680E218A431A607B681B681A6836
:102ADC007B681B6801218A431A607B681A6C7B68CF
:102AEC00DB6B012191400A005A607B682122012195
:102AFC0099547B6820220021995400231800BD466C
:102B0C0002B080BD80B584B000AF78600F217B1817
:102B1C0000221A707B6821229B5CDBB2022B06D050
:102B2C007B6804229A637B1801221A7028E07B6868
:102B3C001B681A687B681B680E218A431A607B68C5
:102B4C001B681A687B681B6801218A431A607B68C2
:102B5C001A6C7B68DB6B012191400A005A607B6820
:102B6C002122012199547B682022002199547B68F1
:102B7C005B6B002B04D07B685B6B7A68100098470A
:102B8C000F23FB181B781800BD4604B080BD80B520
:102B9C0084B000AF78607B68DB6B1B68FB607B6884
:102BAC001B681B68BB607B681B6C04229A4013007B
:102BBC00FA68134024D0BB680422134020D07B68F1
:102BCC001B681B682022134007D17B681B681A689E
:102BDC007B681B6804218A431A607B681A6C7B68CB
:102BEC00DB6B042191400A005A607B68DB6A002B86
:102BFC0000D16AE07B68DB6A7A681000984764E071
:102C0C007B681B6C02229A401300FA6813402BD08D
:102C1C00BB680222134027D07B681B681B682022EC
:102C2C0013400BD17B681B681A687B681B680A21F0
:102C3C008A431A607B682122012199547B681A6CA3
:102C4C007B68DB6B022191400A005A607B68202272
:102C5C00002199547B689B6A002B36D07B689B6A59
:102C6C007A681000984730E07B681B6C08229A4009
:102C7C001300FA68134028D0BB680822134024D0F4
:102C8C007B681B681A687B681B680E218A431A6074
:102C9C007B681A6C7B68DB6B012191400A005A60DF
:102CAC007B6801229A637B682122012199547B68FD
:102CBC002022002199547B681B6B002B05D07B686C
:102CCC001B6B7A6810009847FFE7C046BD4604B0FE
:102CDC0080BD80B584B000AFF860B9607A603B60AD
:102CEC00FB681A6CFB68DB6B012191400A005A608F
:102CFC00FB681B683A685A60FB685B68102B08D14C
:102D0C00FB681B687A689A60FB681B68BA68DA60B3
:102D1C0007E0FB681B68BA689A60FB681B687A68F6
:102D2C00DA60C046BD4604B080BD000080B582B0FC
:102D3C0000AF78607B681B681A00144B9A4210D85D
:102D4C007B681B68124A9446634414211800FDF7F3
:102D5C00D3F903009A007B681A647B680D4ADA6326
:102D6C000FE07B681B680C4A9446634414211800DE
:102D7C00FDF7C2F903009A007B681A647B68074A66
:102D8C00DA63C046BD4602B080BDC04607040240AF
:102D9C00F8FFFDBF00000240F8FBFDBF000402403D
:102DAC0080B586B000AF7860396000237B6155E157
:102DBC003B681B6801217A6991400A001340FB6053
:102DCC00FB68002B00D146E13B685B680322134093
:102DDC00012B05D03B685B6803221340022B30D1DA
:102DEC007B689B683B617B695B0003229A40130004
:102DFC00DA433B6913403B613B68DA687B695B00F3
:102E0C009A4013003A6913433B617B683A699A60B4
:102E1C007B685B683B6101227B699A401300DA4353
:102E2C003B6913403B613B685B681B0901221A40FC
:102E3C007B699A4013003A6913433B617B683A699A
:102E4C005A603B685B6803221340032B17D07B68E6
:102E5C00DB683B617B695B0003229A401300DA4319
:102E6C003B6913403B613B689A687B695B009A4005
:102E7C0013003A6913433B617B683A69DA603B683B
:102E8C005B6803221340022B23D17B69DA087B6831
:102E9C0008329200D3583B617B69072213409B0098
:102EAC000F229A401300DA433B6913403B613B68A5
:102EBC001A697B6907210B409B009A4013003A6901
:102ECC0013433B617B69DA087B68083292003969ED
:102EDC00D1507B681B683B617B695B0003229A4085
:102EEC001300DA433B6913403B613B685B68032288
:102EFC001A407B695B009A4013003A6913433B61AB
:102F0C007B683A691A603B685A68C0239B0213407D
:102F1C0000D1A0E0574B9A69564B01210A439A61A4
:102F2C00544B9B6901221340BB60BB68524A7B69BE
:102F3C009B0802339B009B583B617B690322134027
:102F4C009B000F229A401300DA433B6913403B610C
:102F5C007A689023DB059A4219D07B68474A9342E2
:102F6C0013D07B68464A93420DD07B68454A934206
:102F7C0007D07B68444A934201D1042308E005231F
:102F8C0006E0032304E0022302E0012300E0002317
:102F9C007A6903210A40920093403A6913433B61DA
:102FAC0035497B699B0802339B003A695A50374B71
:102FBC009B683B61FB68DA433B6913403B613B68B0
:102FCC005A6880235B03134003D03A69FB681343B0
:102FDC003B612E4B3A699A602C4BDB683B61FB687A
:102FEC00DA433B6913403B613B685A6880239B037F
:102FFC00134003D03A69FB6813433B61234B3A6996
:10300C00DA60224B5B683B61FB68DA433B69134037
:10301C003B613B685A6880239B02134003D03A699A
:10302C00FB6813433B61194B3A695A60174B1B6899
:10303C003B61FB68DA433B6913403B613B685A6870
:10304C0080235B02134003D03A69FB6813433B6156
:10305C000E4B3A691A607B6901337B613B681A68D5
:10306C007B69DA40131E00D0A2E6C046C046BD46BE
:10307C0006B080BD00100240000001400004004872
:10308C0000080048000C00480010004800040140F3
:10309C0080B582B000AF786008001100BB1C021C28
:1030AC001A807B1C0A1C1A707B1C1B78002B04D00A
:1030BC00BB1C1A887B689A6103E0BB1C1A887B686E
:1030CC009A62C046BD4602B080BD000080B582B099
:1030DC0000AF0200BB1D1A80094B5B69BA1D128838
:1030EC00134008D0064BBA1D12885A61BB1D1B88B1
:1030FC001800FEF7F5FCC046BD4602B080BDC046C8
:10310C000004014080B588B000AF78607B68002B6C
:10311C0002D1012300F076FB7B681B68012213406F
:10312C0000D18EE0C54B5B680C221340042B0ED0F3
:10313C00C24B5B680C221340082B17D1BF4B5A684B
:10314C00C0235B021A4080235B029A420ED1BB4B18
:10315C001A6880239B02134000D171E07B685B6886
:10316C00002B00D06CE0012300F04CFB7B685B680B
:10317C00012B07D1B14B1A68B04B802149020A438D
:10318C001A602FE07B685B68002B0CD1AB4B1A6884
:10319C00AA4BAB490A401A60A84B1A68A74BA9491D
:1031AC000A401A601EE07B685B68052B0ED1A34BAE
:1031BC001A68A24B8021C9020A431A609F4B1A68F5
:1031CC009E4B802149020A431A600BE09B4B1A6804
:1031DC009A4B9B490A401A60984B1A68974B99492D
:1031EC000A401A607B685B68002B14D0FFF798FAD2
:1031FC000300BB6108E0FFF793FA0200BB69D31A26
:10320C00642B01D90323FDE28C4B1A6880239B02AB
:10321C001340F0D015E0FFF783FA0300BB6108E020
:10322C00FFF77EFA0200BB69D31A642B01D9032382
:10323C00E8E2824B1A6880239B021340F0D100E035
:10324C00C0467B681B680222134000D16CE07B4BAC
:10325C005B680C2213400ED0784B5B680C22134039
:10326C00082B1FD1754B5A68C0235B021A40802370
:10327C001B029A4216D1714B1B680222134005D0D7
:10328C007B68DB68012B01D00123BBE26B4B1B6815
:10329C00F822934319007B681B69DA00674B0A43D9
:1032AC001A6041E07B68DB68002B24D0634B1A6802
:1032BC00624B01210A431A60FFF732FA0300BB612B
:1032CC0008E0FFF72DFA0200BB69D31A022B01D9D3
:1032DC00032397E2594B1B6802221340F1D0574B42
:1032EC001B68F822934319007B681B69DA00534B67
:1032FC000A431A6018E0514B1A68504B01218A435B
:10330C001A60FFF70DFA0300BB6108E0FFF708FA3B
:10331C000200BB69D31A022B01D9032372E2474B7B
:10332C001B6802221340F1D17B681B6808221340F2
:10333C0036D07B68DB69002B19D0404B5A6A3F4B67
:10334C0001210A435A62FFF7EBF90300BB6108E065
:10335C00FFF7E6F90200BB69D31A022B01D903234C
:10336C0050E2364B5B6A02221340F1D018E0334B2B
:10337C005A6A324B01218A435A62FFF7D1F9030092
:10338C00BB6108E0FFF7CCF90200BB69D31A022B32
:10339C0001D9032336E2294B5B6A02221340F1D197
:1033AC007B681B680422134000D1B5E01F203B183A
:1033BC0000221A70214BDA6980235B05134010D16F
:1033CC001E4BDA691D4B802149050A43DA611B4B00
:1033DC00DA6980235B051340FB60FB683B18012214
:1033EC001A70194B1A6880235B0013401AD1164BC4
:1033FC001A68154B802149000A431A60FFF790F9AF
:10340C000300BB6108E0FFF78BF90200BB69D31A1C
:10341C00642B01D90323F5E10B4B1A6880235B0065
:10342C001340F0D07B689B68012B0FD1034B1A6AB9
:10343C00024B01210A431A6236E0C04600100240DA
:10344C00FFFFFEFFFFFFFBFF007000407B689B68E7
:10345C00002B0CD1CA4B1A6AC94B01218A431A6240
:10346C00C74B1A6AC64B04218A431A621CE07B685C
:10347C009B68052B0CD1C24B1A6AC14B04210A4321
:10348C001A62BF4B1A6ABE4B01210A431A620BE047
:10349C00BB4B1A6ABA4B01218A431A62B84B1A6A9F
:1034AC00B74B04218A431A627B689B68002B14D0AB
:1034BC00FFF736F90300BB6109E0FFF731F90200B1
:1034CC00BB69D31AAF4A934201D903239AE1AC4B9F
:1034DC001B6A02221340F0D013E0FFF721F903001E
:1034EC00BB6109E0FFF71CF90200BB69D31AA54ABE
:1034FC00934201D9032385E1A14B1B6A022213409D
:10350C00F0D11F23FB181B78012B05D19C4BDA69DA
:10351C009B4B9D490A40DA617B681B681022134063
:10352C0063D07B685B69012B2AD1954B5A6B944B0A
:10353C0004210A435A63924B5A6B914B01210A4363
:10354C005A63FFF7EDF80300BB6108E0FFF7E8F8FA
:10355C000200BB69D31A022B01D9032352E1884B19
:10356C005B6B02221340F1D0854B5B6BF8229343CB
:10357C0019007B689B69DA00814B0A435A6334E07B
:10358C007B685B69053311D17D4B5A6B7C4B0421F5
:10359C008A435A637A4B5B6BF822934319007B681E
:1035AC009B69DA00764B0A435A631EE0744B5A6BE4
:1035BC00734B04210A435A63714B5A6B704B0121B4
:1035CC008A435A63FFF7ACF80300BB6108E0FFF7CE
:1035DC00A7F80200BB69D31A022B01D9032311E10E
:1035EC00674B5B6B02221340F1D17B681B68202276
:1035FC0013405CD0624B5B680C2213400C2B0ED03A
:10360C005F4B5B680C221340082B14D15C4B5A683F
:10361C00C0235B021A40C0235B029A420BD1584B69
:10362C005A6B80239B02134040D07B681B6A012B92
:10363C003CD00123E6E07B681B6A002B1BD0504B6F
:10364C005A6B4F4B802149020A435A63FFF768F8C3
:10365C000300BB6108E0FFF763F80200BB69D31AF3
:10366C00022B01D90323CDE0454B5A6B80239B02DF
:10367C001340F0D01BE0424B5A6B414B43490A407C
:10368C005A63FFF74DF80300BB6108E0FFF748F8F9
:10369C000200BB69D31A022B01D90323B2E0384BC9
:1036AC005A6B80239B021340F0D100E0C0467B682C
:1036BC005B6A002B00D1A4E0314B5B680C221340F9
:1036CC00082B00D178E07B685B6A022B4CD12C4B29
:1036DC001A682B4B2E490A401A60FFF721F8030099
:1036EC00BB6108E0FFF71CF80200BB69D31A022B80
:1036FC0001D9032386E0224B1A6880239B041340D4
:10370C00F0D11F4BDB6A0F22934319007B681A6BB5
:10371C001B4B0A43DA621A4B5B681E4A13401900B2
:10372C007B68DA6A7B689B6A1A43154B0A435A60BA
:10373C00134B1A68124B802149040A431A60FEF796
:10374C00EFFF0300BB6108E0FEF7EAFF0200BB6974
:10375C00D31A022B01D9032354E0094B1A68802396
:10376C009B041340F0D04CE0054B1A68044B0849FD
:10377C000A401A60FEF7D4FF0300BB6115E0C04697
:10378C000010024088130000FFFFFFEFFFFFFEFF59
:10379C00FFFFFFFEFF7FC2FFFEF7C2FF0200BB6907
:1037AC00D31A022B01D903232CE0184B1A6880235F
:1037BC009B041340F0D124E07B685B6A012B01D1A0
:1037CC0001231FE0114B5B687B61104BDB6A3B6193
:1037DC007A69C0235B021A407B689B6A9A420ED1BD
:1037EC003B690F221A407B681B6B9A4207D17A699E
:1037FC00F0239B031A407B68DB6A9A4201D00123B9
:10380C0000E000231800BD4608B080BD0010024047
:10381C0080B584B000AF786039607B68002B01D133
:10382C000123BFE0614B1B68012213403A689A42A6
:10383C0011D95E4B1B680122934319005B4B3A680C
:10384C000A431A60594B1B68012213403A689A428A
:10385C0001D00123A6E07B681B680222134015D01F
:10386C007B681B680422134006D0514B5A68504B9E
:10387C00E021C9000A435A604D4B5B68F022934328
:10388C0019007B689A684A4B0A435A607B681B682C
:10389C00012213404CD07B685B68012B07D1444B51
:1038AC001A6880239B02134020D101237AE07B68A5
:1038BC005B68022B07D13E4B1A6880239B04134094
:1038CC0014D101236EE07B685B68032B07D1384B66
:1038DC005A6B80239B02134008D1012362E0344BC6
:1038EC001B680222134001D101235BE0304B5B6863
:1038FC000322934319007B685A682D4B0A435A6084
:10390C00FEF70EFF0300FB6009E0FEF709FF020063
:10391C00FB68D31A274A934201D9032342E0244B74
:10392C005B680C221A407B685B689B009A42ECD166
:10393C001E4B1B68012213403A689A4211D21B4B52
:10394C001B68012293431900184B3A680A431A600A
:10395C00164B1B68012213403A689A4201D001238E
:10396C0020E07B681B680422134009D0104B5B6875
:10397C00114A134019007B68DA680D4B0A435A60F0
:10398C0000F020F801000A4B5B681B090F22134062
:10399C000A4AD35C0A00DA40094B1A600320FEF78E
:1039AC0079FE00231800BD4604B080BD0020024003
:1039BC000010024088130000FFF8FFFFC06A0008E7
:1039CC004800002080B586B000AF0023FB600023C8
:1039DC00BB6000237B6100237B6000233B612D4B8C
:1039EC005B68FB60FB680C2213400C2B46D048D85C
:1039FC00042B02D0082B03D043E0274B3B6143E060
:103A0C00FB689B0C0F221340244AD35C7B60214B38
:103A1C00DB6A0F221340224AD35CBB60FA68C023D6
:103A2C005B021A4080235B029A4209D1B9681A489A
:103A3C00FCF762FB03001A007B6853437B611AE0BE
:103A4C00FA68C0235B021A40C0235B029A4209D178
:103A5C00B9681448FCF750FB03001A007B68534309
:103A6C007B6108E0B9680C48FCF746FB03001A00C0
:103A7C007B6853437B617B693B6105E0094B3B6190
:103A8C0002E0054B3B61C0463B691800BD4606B0E1
:103A9C0080BDC0460010024000127A00D86A0008AF
:103AAC00E86A0008006CDC0280B500AF024B1B68B2
:103ABC001800BD4680BDC0464800002080B500AF50
:103ACC00FFF7F2FF0100064B5B681B0A072213404D
:103ADC00044AD35CD9400B001800BD4680BDC046DB
:103AEC0000100240D06A000880B586B000AF786044
:103AFC0000233B610023FB607B681A6880235B0218
:103B0C00134000D18EE017203B1800221A706E4B28
:103B1C00DA6980235B05134010D16B4BDA696A4B71
:103B2C00802149050A43DA61674BDA6980235B051A
:103B3C001340BB60BB683B1801221A70634B1A68B8
:103B4C0080235B0013401AD1604B1A685F4B8021B5
:103B5C0049000A431A60FEF7E3FD03003B6108E0ED
:103B6C00FEF7DEFD02003B69D31A642B01D9032357
:103B7C00A6E0564B1A6880235B001340F0D0524BE2
:103B8C001A6AC0239B001340FB60FB68002B34D0E7
:103B9C007B685A68C0239B001340FA689A422CD069
:103BAC00494B1B6A4A4A1340FB60474B1A6A464B07
:103BBC00802149020A431A62434B1A6A424B454917
:103BCC000A401A62404BFA681A62FB6801221340E1
:103BDC0013D0FEF7A5FD03003B6109E0FEF7A0FD45
:103BEC0002003B69D31A3C4A934201D9032367E094
:103BFC00354B1B6A02221340F0D0334B1B6A344AFC
:103C0C00134019007B685A682F4B0A431A6217231A
:103C1C00FB181B78012B05D12B4BDA692A4B2F494A
:103C2C000A40DA617B681B680122134009D0264BDD
:103C3C001B6B0322934319007B689A68224B0A433F
:103C4C001A637B681B680222134009D01E4B1B6B46
:103C5C00234A134019007B68DA681B4B0A431A632A
:103C6C007B681A688023DB02134009D0164B1B6B50
:103C7C001C4A134019007B681A69134B0A431A63D8
:103C8C007B681B682022134009D00F4B1B6B102242
:103C9C00934319007B685A690B4B0A431A637B6880
:103CAC001A688023DB00134009D0074B1B6B4022A2
:103CBC00934319007B689A69034B0A431A630023E8
:103CCC001800BD4606B080BD0010024000700040D8
:103CDC00FFFCFFFFFFFFFEFF88130000FFFFFFEF5D
:103CEC00FFFFFCFFFFFFF3FF80B588B000AFF8606B
:103CFC00B9603B60BB1D1A801F23FB1800221A7091
:103D0C00FB685C229B5C012B01D1022347E1FB6821
:103D1C005C2201219954FEF703FD0300BB611623BD
:103D2C00FB18BA1D12881A80FB685D229B5CDBB203
:103D3C00012B04D01F23FB1802221A7028E1BB6848
:103D4C00002B03D0BB1D1B88002B04D11F23FB1899
:103D5C0001221A701CE1FB685D2203219954FB6857
:103D6C0000221A66FB68BA689A63FB68BA1D12884F
:103D7C009A87FB68BA1D1288DA87FB6800221A64DE
:103D8C00FB68442200219952FB684622002199527B
:103D9C00FB6800221A65FB680022DA64FB689A68EB
:103DAC0080231B029A4210D1FB681B681A68FB68BF
:103DBC001B6840218A431A60FB681B681A68FB6801
:103DCC001B688021C9010A431A60FB681B681B68C9
:103DDC0040221340402B07D0FB681B681A68FB6815
:103DEC001B6840210A431A60FB68DA68E023DB0099
:103DFC009A4252D9FB685B68002B04D01623FB183F
:103E0C001B88012B43D1FB689B6B1A88FB681B68D2
:103E1C00DA60FB689B6B9A1CFB689A63FB68DB8F10
:103E2C009BB2013B9AB2FB68DA8730E0FB681B68F7
:103E3C009B6802221340022B12D1FB689B6B1A88E1
:103E4C00FB681B68DA60FB689B6B9A1CFB689A63C7
:103E5C00FB68DB8F9BB2013B9AB2FB68DA8716E0FA
:103E6C00FEF75EFC0200BB69D31A3A689A4202D88C
:103E7C003B68013302D13B68002B08D11F23FB1890
:103E8C0003221A70FB685D220121995480E0FB68C3
:103E9C00DB8F9BB2002BC9D153E0FB685B68002B16
:103EAC0004D01623FB181B88012B45D1FB689A6B99
:103EBC00FB681B680C3312781A70FB689B6B5A1CDE
:103ECC00FB689A63FB68DB8F9BB2013B9AB2FB6881
:103EDC00DA8731E0FB681B689B6802221340022BD7
:103EEC0013D1FB689A6BFB681B680C3312781A7041
:103EFC00FB689B6B5A1CFB689A63FB68DB8F9BB25D
:103F0C00013B9AB2FB68DA8716E0FEF709FC020067
:103F1C00BB69D31A3A689A4202D83B68013302D182
:103F2C003B68002B08D11F23FB1803221A70FB6877
:103F3C005D22012199542BE0FB68DB8F9BB2002B97
:103F4C00C8D1BA693968FB68180000F05DF9031E26
:103F5C0002D0FB6820221A66FB689B68002B0AD1F2
:103F6C0000233B61FB681B68DB683B61FB681B68DB
:103F7C009B683B613B69FB681B6E002B04D01F23C5
:103F8C00FB1801221A7003E0FB685D220121995491
:103F9C00FB685C22002199541F23FB181B78180026
:103FAC00BD4608B080BD000080B588B000AFF86099
:103FBC00B9603B60FB1D1A70FEF7B2FB0200BB6AD6
:103FCC009B1A3A68D318FB61FEF7AAFB0300BB618E
:103FDC003A4B1B685B011B0DFA6953437B6158E03C
:103FEC003B68013355D0FEF79BFB0200BB69D31A2B
:103FFC00FA699A4202D9FB69002B42D1FB681B6813
:10400C005A68FB681B68E0218A435A60FB685A684F
:10401C0082235B009A4213D1FB689A6880231B02AF
:10402C009A4205D0FB689A688023DB009A4207D13C
:10403C00FB681B681A68FB681B6840218A431A607E
:10404C00FB689A6A80239B019A4210D1FB681B681B
:10405C001A68FB681B681A490A401A60FB681B68DF
:10406C001A68FB681B68802189010A431A60FB6887
:10407C005D2201219954FB685C2200219954032391
:10408C0017E07B69002B01D10023FB617B69013BAD
:10409C007B61FB681B689B68BA681340BA68D31ACB
:1040AC005A425341DBB21A00FB1D1B789A4297D13E
:1040BC0000231800BD4608B080BDC0464800002053
:1040CC00FFDFFFFF80B58AB000AFF860B9607A609F
:1040DC003B601723FB1800221A70FEF721FB02002D
:1040EC003B6B9B1A3A68D3187B62FEF719FB0300F3
:1040FC003B62FB681B680C33FB61414B1A68130075
:10410C009B009B18DA00D31A1B0D7A6A5343BB61D0
:10411C0068E0BA68C023DB009A420AD17B68002BA6
:10412C0007D1FB691B78DAB217217B181A707B1840
:10413C001B783B68013355D0FEF7F2FA02003B6A5C
:10414C00D31A7A6A9A4202D97B6A002B42D1FB6855
:10415C001B685A68FB681B68E0218A435A60FB683D
:10416C005A6882235B009A4213D1FB689A688023B9
:10417C001B029A4205D0FB689A688023DB009A42A6
:10418C0007D1FB681B681A68FB681B6840218A43CF
:10419C001A60FB689A6A80239B019A4210D1FB68D3
:1041AC001B681A68FB681B6816490A401A60FB6892
:1041BC001B681A68FB681B68802189010A431A6016
:1041CC00FB685D2201219954FB685C220021995403
:1041DC00032310E0BB69002B01D100237B62BB6978
:1041EC00013BBB61FB681B689B68BA6813407A682B
:1041FC009A428ED100231800BD460AB080BDC0463D
:10420C0048000020FFDFFFFF80B586B002AFF860EA
:10421C00B9607A60BA68C0235901F8687B6800936A
:10422C0013000022FFF74EFF031E07D0FB681B6E26
:10423C0020221A43FB681A66032327E0BA68F86841
:10424C007B680093130000228021FFF7ADFE031E54
:10425C0007D0FB681B6E20221A43FB681A660323E7
:10426C0014E0BA68C023D900F8687B680093130087
:10427C000022FFF727FF031E07D0FB681B6E2022CE
:10428C001A43FB681A66032300E000231800BD469E
:10429C0004B080BD80B582B000AF78607B68002B25
:1042AC0001D1012342E07B683D229B5CDBB2002BF9
:1042BC0007D17B683C22002199547B681800FEF7DB
:1042CC0005F87B683D22022199547B681A687B684B
:1042DC0004331900100000F009FD7B68462201210F
:1042EC0099547B683E22012199547B683F2201211D
:1042FC0099547B684022012199547B684122012109
:10430C0099547B684222012199547B6843220121F4
:10431C0099547B684422012199547B6845220121E0
:10432C0099547B683D220121995400231800BD4605
:10433C0002B080BD80B584B000AF78607B683D2250
:10434C009B5CDBB2012B01D001233BE07B683D225F
:10435C00022199547B681B68DA687B681B68012111
:10436C000A43DA607B681B68184A93420FD07B685B
:10437C001A688023DB059A4209D07B681B68144AB3
:10438C00934204D07B681B68124A934211D17B681C
:10439C001B689B6807221340FB60FB68062B10D040
:1043AC007B681B681A687B681B6801210A431A60CA
:1043BC0007E07B681B681A687B681B6801210A434D
:1043CC001A6000231800BD4604B080BD002C0140CB
:1043DC00000400400040014080B582B000AF78601E
:1043EC007B681B68DA687B681B6801218A43DA608A
:1043FC007B681B681B6A0D4A13400DD17B681B68D8
:10440C001B6A0B4A134007D17B681B681A687B68D0
:10441C001B6801218A431A607B683D220121995453
:10442C0000231800BD4602B080BDC046111100002B
:10443C004404000080B582B000AF78607B68002B2C
:10444C0001D1012342E07B683D229B5CDBB2002B57
:10445C0007D17B683C22002199547B68180000F03E
:10446C0039F87B683D22022199547B681A687B6875
:10447C0004331900100000F039FC7B68462201213E
:10448C0099547B683E22012199547B683F2201217B
:10449C0099547B684022012199547B684122012167
:1044AC0099547B684222012199547B684322012153
:1044BC0099547B684422012199547B68452201213F
:1044CC0099547B683D220121995400231800BD4664
:1044DC0002B080BD80B582B000AF7860C046BD46EA
:1044EC0002B080BD80B584B000AF786039603B68A5
:1044FC00002B08D17B683E229B5CDBB2013B5A1E31
:10450C009341DBB21FE03B68042B08D17B683F2250
:10451C009B5CDBB2013B5A1E9341DBB213E03B6860
:10452C00082B08D17B6840229B5CDBB2013B5A1EF6
:10453C009341DBB207E07B6841229B5CDBB2013B21
:10454C005A1E9341DBB2002B01D0012374E03B686F
:10455C00002B04D17B683E220221995413E03B6866
:10456C00042B04D17B683F22022199540BE03B6859
:10457C00082B04D17B6840220221995403E07B680C
:10458C004122022199547B681B683968012218006A
:10459C0000F0C2FE7B681B68294A93420ED07B68F0
:1045AC001B68284A934209D07B681B68264A9342B1
:1045BC0004D07B681B68254A934201D1012300E09B
:1045CC000023002B08D07B681B685A6C7B681B6827
:1045DC00802109020A435A647B681B68184A93427B
:1045EC000FD07B681A688023DB059A4209D07B6860
:1045FC001B68174A934204D07B681B68114A93428C
:10460C0011D17B681B689B6807221340FB60FB6819
:10461C00062B10D07B681B681A687B681B6801210D
:10462C000A431A6007E07B681B681A687B681B6882
:10463C0001210A431A6000231800BD4604B080BD56
:10464C00002C014000400140004401400048014062
:10465C000004004080B582B000AF786039607B68A0
:10466C001B6839680022180000F056FE7B681B6836
:10467C002F4A93420ED07B681B682E4A934209D076
:10468C007B681B682C4A934204D07B681B682B4ABE
:10469C00934201D1012300E00023002B13D07B684F
:1046AC001B681B6A264A13400DD17B681B681B6A6A
:1046BC00244A134007D17B681B685A6C7B681B68C3
:1046CC0021490A405A647B681B681B6A1C4A1340C8
:1046DC000DD17B681B681B6A1A4A134007D17B6893
:1046EC001B681A687B681B6801218A431A603B6847
:1046FC00002B04D17B683E220121995413E03B68C6
:10470C00042B04D17B683F22012199540BE03B68B8
:10471C00082B04D17B6840220121995403E07B686B
:10472C0041220121995400231800BD4602B080BDDE
:10473C00002C014000400140004401400048014071
:10474C001111000044040000FF7FFFFF80B582B010
:10475C0000AF78607B681B681B6902221340022B38
:10476C0024D17B681B68DB6802221340022B1DD10D
:10477C007B681B68032252421A617B6801221A77FC
:10478C007B681B689B690322134004D07B6818006C
:10479C0000F094FA07E07B68180000F087FA7B6859
:1047AC00180000F093FA7B6800221A777B681B686C
:1047BC001B6904221340042B25D17B681B68DB6822
:1047CC0004221340042B1ED17B681B680522524225
:1047DC001A617B6802221A777B681B689A69C0236E
:1047EC009B00134004D07B68180000F067FA07E0C8
:1047FC007B68180000F05AFA7B68180000F066FA23
:10480C007B6800221A777B681B681B69082213409F
:10481C00082B24D17B681B68DB6808221340082B0B
:10482C001DD17B681B68092252421A617B680422E5
:10483C001A777B681B68DB690322134004D07B6802
:10484C00180000F03BFA07E07B68180000F02EFA25
:10485C007B68180000F03AFA7B6800221A777B68B4
:10486C001B681B6910221340102B25D17B681B6819
:10487C00DB6810221340102B1ED17B681B681122A1
:10488C0052421A617B6808221A777B681B68DA69C6
:10489C00C0239B00134004D07B68180000F00EFA74
:1048AC0007E07B68180000F001FA7B68180000F044
:1048BC000DFA7B6800221A777B681B681B69012242
:1048CC001340012B0FD17B681B68DB68012213405E
:1048DC00012B08D17B681B68022252421A617B684B
:1048EC001800FDF795FB7B681B681B698022134041
:1048FC00802B0FD17B681B68DB6880221340802BD8
:10490C0008D17B681B68812252421A617B681800AF
:10491C0000F0EAFD7B681B681B6940221340402BAA
:10492C000FD17B681B68DB6840221340402B08D1F9
:10493C007B681B68412252421A617B68180000F0A8
:10494C00CDF97B681B681B6920221340202B0FD1EB
:10495C007B681B68DB6820221340202B08D17B6806
:10496C001B68212252421A617B68180000F0B4FDCA
:10497C00C046BD4602B080BD80B586B000AFF860C1
:10498C00B9607A601723FB1800221A70FB683C226E
:10499C009B5C012B01D10223ADE0FB683C22012181
:1049AC0099547B680C2B00D176E07B680C2B00D9DA
:1049BC0095E07B68082B4ED07B68082B00D98EE0E5
:1049CC007B68002B03D07B68042B21D087E0FB682D
:1049DC001B68BA681100180000F008FAFB681B6825
:1049EC009A69FB681B6808210A439A61FB681B687B
:1049FC009A69FB681B6804218A439A61FB681B68EF
:104A0C009969BB681A69FB681B680A439A616BE079
:104A1C00FB681B68BA681100180000F06FFAFB689D
:104A2C001B689A69FB681B68802109010A439A611B
:104A3C00FB681B689A69FB681B6831490A409A61DC
:104A4C00FB681B689969BB681B691A02FB681B68C9
:104A5C000A439A6148E0FB681B68BA6811001800A9
:104A6C0000F0D0FAFB681B68DA69FB681B68082148
:104A7C000A43DA61FB681B68DA69FB681B6804216E
:104A8C008A43DA61FB681B68D969BB681A69FB68E1
:104A9C001B680A43DA6127E0FB681B68BA681100DF
:104AAC00180000F035FBFB681B68DA69FB681B68B3
:104ABC00802109010A43DA61FB681B68DA69FB682B
:104ACC001B680F490A40DA61FB681B68D969BB682F
:104ADC001B691A02FB681B680A43DA6104E017239E
:104AEC00FB1801221A70C046FB683C220021995425
:104AFC001723FB181B781800BD4606B080BDC046B6
:104B0C00FFFBFFFF80B584B000AF786039600F23E6
:104B1C00FB1800221A707B683C229B5C012B01D194
:104B2C000223BCE07B683C22012199547B683D2226
:104B3C00022199547B681B689B68BB60BB68772219
:104B4C009343BB60BB68584A1340BB607B681B68CF
:104B5C00BA689A603B681B6880229201934240D0ED
:104B6C0080229201934200D988E080225201934224
:104B7C0000D188E080225201934200D97EE0702B54
:104B8C0018D000D97AE0602B4FD000D976E0502BAA
:104B9C003BD000D972E0402B57D000D96EE0302BBF
:104BAC0063D06BD8202B60D068D8002B5DD0102B35
:104BBC005BD063E07B6818683B6899683B685A680F
:104BCC003B68DB6800F088FB7B681B689B68BB60FC
:104BDC00BB6877221343BB607B681B68BA689A601A
:104BEC0052E07B6818683B6899683B685A683B6878
:104BFC00DB6800F071FB7B681B689A687B681B683C
:104C0C008021C9010A439A603EE07B6818683B68C2
:104C1C0059683B68DB681A0000F0E4FA7B681B6893
:104C2C005021180000F03EFB2EE07B6818683B68B2
:104C3C0059683B68DB681A0000F002FB7B681B6854
:104C4C006021180000F02EFB1EE07B6818683B68A2
:104C5C0059683B68DB681A0000F0C4FA7B681B6873
:104C6C004021180000F01EFB0EE07B681A683B68C0
:104C7C001B681900100000F015FB05E00F23FB1852
:104C8C0001221A7000E0C0467B683D220121995434
:104C9C007B683C22002199540F23FB181B781800C9
:104CAC00BD4604B080BDC046FF00FFFF80B582B09A
:104CBC0000AF7860C046BD4602B080BD80B582B002
:104CCC0000AF7860C046BD4602B080BD80B582B0F2
:104CDC0000AF7860C046BD4602B080BD80B582B0E2
:104CEC0000AF7860C046BD4602B080BD80B584B0D0
:104CFC0000AF786039607B681B68FB607B68344A66
:104D0C00934208D07A688023DB059A4203D07B68F3
:104D1C00304A934208D1FB6870229343FB603B6896
:104D2C005B68FA681343FB607B68294A934218D08E
:104D3C007A688023DB059A4213D07B68254A93421C
:104D4C000FD07B68244A93420BD07B68234A934252
:104D5C0007D07B68224A934203D07B68214A934256
:104D6C0008D1FB68204A1340FB603B68DB68FA689B
:104D7C001343FB60FB68802293431A003B685B691A
:104D8C001343FB607B68FA681A603B689A687B681F
:104D9C00DA623B681A687B689A627B680C4A9342B9
:104DAC000BD07B680D4A934207D07B680C4A934228
:104DBC0003D07B680B4A934203D13B681A697B682A
:104DCC001A637B6801225A61C046BD4604B080BD9F
:104DDC00002C014000040040002000400040014035
:104DEC000044014000480140FFFCFFFF80B586B045
:104DFC0000AF786039607B681B6A012293431A000C
:104E0C007B681A627B681B6A7B617B685B683B61B1
:104E1C007B689B69FB60FB6870229343FB60FB68BB
:104E2C0003229343FB603B681B68FA681343FB60E7
:104E3C007B69022293437B613B689B687A691343CD
:104E4C007B617B68274A93420BD07B68264A93424E
:104E5C0007D07B68254A934203D07B68244A93424F
:104E6C000CD17B69082293437B613B68DB687A69D0
:104E7C0013437B617B69042293437B617B68194AF2
:104E8C0093420BD07B68184A934207D07B68174A31
:104E9C00934203D07B68164A934211D13B69154A61
:104EAC0013403B613B69144A13403B613B685B69AF
:104EBC003A6913433B613B689B693A6913433B6115
:104ECC007B683A695A607B68FA689A613B685A68F1
:104EDC007B685A637B687A691A62C046BD4606B025
:104EEC0080BDC046002C0140004001400044014000
:104EFC0000480140FFFEFFFFFFFDFFFF80B586B0BD
:104F0C0000AF786039607B681B6A102293431A00EB
:104F1C007B681A627B681B6A7B617B685B683B61A0
:104F2C007B689B69FB60FB682E4A1340FB60FB6847
:104F3C002D4A1340FB603B681B681B02FA68134345
:104F4C00FB607B69202293437B613B689B681B0160
:104F5C007A6913437B617B68244A93420DD17B6948
:104F6C00802293437B613B68DB681B017A691343A6
:104F7C007B617B69402293437B617B681B4A934234
:104F8C000BD07B681A4A934207D07B68194A93422C
:104F9C0003D07B68184A934213D13B69174A1340DC
:104FAC003B613B69164A13403B613B685B699B0064
:104FBC003A6913433B613B689B699B003A69134315
:104FCC003B617B683A695A607B68FA689A613B6816
:104FDC005A687B689A637B687A691A62C046BD46D8
:104FEC0006B080BDFF8FFFFFFFFCFFFF002C0140D0
:104FFC00004001400044014000480140FFFBFFFF1E
:10500C00FFF7FFFF80B586B000AF786039607B6832
:10501C001B6A354A1A407B681A627B681B6A7B6183
:10502C007B685B683B617B68DB69FB60FB687022BB
:10503C009343FB60FB6803229343FB603B681B6854
:10504C00FA681343FB607B69284A13407B613B6819
:10505C009B681B027A6913437B617B68244A9342E9
:10506C000DD17B69234A13407B613B68DB681B02D3
:10507C007A6913437B617B691F4A13407B617B68B0
:10508C001B4A93420BD07B681C4A934207D07B6827
:10509C001B4A934203D07B681A4A934213D13B6953
:1050AC00194A13403B613B69184A13403B613B680A
:1050BC005B691B013A6913433B613B689B691B01AC
:1050CC003A6913433B617B683A695A607B68FA68BA
:1050DC00DA613B685A687B68DA637B687A691A62C2
:1050EC00C046BD4606B080BDFFFEFFFFFFFDFFFFC3
:1050FC00002C0140FFF7FFFFFFFBFFFF00400140CA
:10510C000044014000480140FFEFFFFFFFDFFFFFBD
:10511C0080B586B000AF786039607B681B6A284A1E
:10512C001A407B681A627B681B6A3B617B685B6810
:10513C007B617B68DB69FB60FB68224A1340FB6088
:10514C00FB68214A1340FB603B681B681B02FA6832
:10515C001343FB603B691D4A13403B613B689B68F2
:10516C001B033A6913433B617B68194A93420BD08A
:10517C007B68184A934207D07B68174A934203D046
:10518C007B68164A934209D17B69154A13407B61AF
:10519C003B685B699B017A6913437B617B687A6925
:1051AC005A607B68FA68DA613B685A687B681A64F3
:1051BC007B683A691A62C046BD4606B080BDC046DF
:1051CC00FFEFFFFFFF8FFFFFFFFCFFFFFFDFFFFF86
:1051DC00002C0140004001400044014000480140C7
:1051EC00FFBFFFFF80B586B000AFF860B9607A6092
:1051FC00FB681B6A7B61FB681B6A012293431A00E4
:10520C00FB681A62FB689B693B613B69F022934324
:10521C003B617B681B013A6913433B617B690A2242
:10522C0093437B617A69BB6813437B61FB683A6982
:10523C009A61FB687A691A62C046BD4606B080BDA9
:10524C0080B586B000AFF860B9607A60FB681B6A05
:10525C00102293431A00FB681A62FB689B697B61FE
:10526C00FB681B6A3B617B690D4A13407B617B6861
:10527C001B037A6913437B613B69A02293433B6117
:10528C00BB681B013A6913433B61FB687A699A61FD
:10529C00FB683A691A62C046BD4606B080BDC0467E
:1052AC00FF0FFFFF80B584B000AF786039607B687A
:1052BC009B68FB60FB6870229343FB603A68FB6859
:1052CC00134307221343FB607B68FA689A60C0465D
:1052DC00BD4604B080BD000080B586B000AFF8605C
:1052EC00B9607A603B60FB689B687B617B69094AAB
:1052FC0013407B613B681A027B681A43BB681343FB
:10530C007A6913437B61FB687A699A60C046BD4633
:10531C0006B080BDFF00FFFF80B586B000AFF8601F
:10532C00B9607A60BB681F22134001229A401300B7
:10533C007B61FB681B6A7A69D2431A40FB681A626C
:10534C00FB681A6ABB681F210B40796899400B00F7
:10535C001A43FB681A62C046BD4606B080BD000009
:10536C0080B584B000AF786039607B683C229B5C70
:10537C00012B01D1022347E07B683C220121995487
:10538C007B683D22022199547B681B685B68FB603B
:10539C007B681B689B68BB60FB6870229343FB6057
:1053AC003B681B68FA681343FB607B681B68FA68F0
:1053BC005A607B681B68164A93420FD07B681A6848
:1053CC008023DB059A4209D07B681B68114A934203
:1053DC0004D07B681B68104A93420CD1BB688022B6
:1053EC009343BB603B685B68BA681343BB607B68E4
:1053FC001B68BA689A607B683D22012199547B68CE
:10540C003C220021995400231800BD4604B080BDF5
:10541C00002C0140000400400040014080B584B0E5
:10542C0000AF786039600023FB607B683C229B5C9A
:10543C00012B01D102233EE07B683C2201219954CF
:10544C00FB68FF2293431A003B68DB681343FB6045
:10545C00FB681B4A1A403B689B681343FB60FB6864
:10546C00184A1A403B685B681343FB60FB68164A9A
:10547C001A403B681B681343FB60FB68134A1A40D5
:10548C003B681B691343FB60FB68114A1A403B687D
:10549C005B691343FB60FB680E4A1A403B68DB698F
:1054AC001343FB607B681B68FA685A647B683C2278
:1054BC000021995400231800BD4604B080BDC0469D
:1054CC00FFFCFFFFFFFBFFFFFFF7FFFFFFEFFFFFFF
:1054DC00FFDFFFFFFFBFFFFF80B582B000AF78603A
:1054EC00C046BD4602B080BD80B582B000AF7860CA
:1054FC00C046BD4602B080BD80B582B000AF7860BA
:10550C007B68002B01D1012344E07B68DB6F002B0F
:10551C0007D17B687822002199547B681800FCF72E
:10552C0089FF7B682422DA677B681B681A687B68B2
:10553C001B6801218A431A607B68180000F02CFC60
:10554C000300012B01D1012324E07B685B6A002B53
:10555C0003D07B68180000F007FE7B681B685A6854
:10556C007B681B680D490A405A607B681B689A6807
:10557C007B681B682A218A439A607B681B681A68BF
:10558C007B681B6801210A431A607B68180000F0D5
:10559C009FFE03001800BD4602B080BDFFB7FFFFA1
:1055AC0080B58AB002AFF860B9603B60BB1D1A8051
:1055BC00FB68DB6F202B00D08DE0BB68002B03D089
:1055CC00BB1D1B88002B01D1012385E0FB689A6869
:1055DC0080235B019A4209D1FB681B69002B05D122
:1055EC00BB680122134001D0012375E0FB688422C3
:1055FC0000219950FB682122DA67FDF791F803002E
:10560C007B61FB68BA1D502112885A52FB68BA1D87
:10561C00522112885A52FB689A6880235B019A4285
:10562C0008D1FB681B69002B04D10023FB61BB680C
:10563C00BB6103E0BB68FB610023BB6130E07A69AE
:10564C00F8683B68009313000022802100F0E8FE0C
:10565C00031E04D0FB682022DA6703233CE0FB69BD
:10566C00002B0BD1BB691A88FB681B68D205D20DC5
:10567C0092B21A85BB690233BB6108E0FB691A78E8
:10568C00FB681B6892B21A85FB690133FB61FB68EE
:10569C0052229B5A9BB2013B99B2FB6852229952FF
:1056AC00FB6852229B5A9BB2002BC8D17A69F868CE
:1056BC003B68009313000022402100F0B1FE031E52
:1056CC0004D0FB682022DA67032305E0FB68202264
:1056DC00DA67002300E002231800BD4608B080BD45
:1056EC0080B588B000AFF860B960BB1D1A80FB684C
:1056FC0080229B58202B45D1BB68002B03D0BB1DAF
:10570C001B88002B01D101233DE0FB689A688023A4
:10571C005B019A4209D1FB681B69002B05D1BB6860
:10572C000122134001D001232DE0FB6800221A66F0
:10573C00FB681B685A6880231B04134019D0EFF3D5
:10574C0010833B613B69FB6101237B617B6983F3C4
:10575C001088C046FB681B681A68FB681B688021B0
:10576C00C9040A431A60FB69BB61BB6983F31088E7
:10577C00C046BB1D1A88B968FB68180000F0BAFE59
:10578C00030000E002231800BD4608B080BD0000F5
:10579C0090B5ABB000AF78607B681B68DB69A42266
:1057AC00B9180B607B681B681B68A02039180B604C
:1057BC007B681B689B689C2179180B601100BB18D7
:1057CC001B68994A13409822BC182360BB181B68AD
:1057DC00002B14D17B181B68202213400FD03B18D0
:1057EC001B68202213400AD07B689B6E002B00D1D3
:1057FC009EE27B689B6E7A681000984798E298232B
:10580C00FB181B68002B00D114E19C23FB181B68B0
:10581C000122134006D1A023FB181B68834A1340B6
:10582C0000D107E1A423FB181B680122134012D0FE
:10583C00A023FB181A6880235B0013400BD07B68F5
:10584C001B6801221A627B6884229B5801221A432E
:10585C007B6884215A50A423FB181B680222134036
:10586C0011D09C23FB181B68012213400BD07B68C2
:10587C001B6802221A627B6884229B5804221A43FA
:10588C007B6884215A50A423FB181B680422134004
:10589C0011D09C23FB181B68012213400BD07B6892
:1058AC001B6804221A627B6884229B5802221A43CA
:1058BC007B6884215A50A423FB181B6808221340D0
:1058CC0017D0A023FB181B682022134005D19C2362
:1058DC00FB181B68012213400BD07B681B68082245
:1058EC001A627B6884229B5808221A437B688421A5
:1058FC005A50A423FB181A6880231B01134013D0A1
:10590C00A023FB181A688023DB0413400CD07B689F
:10591C001B68802212011A627B6884229B58202209
:10592C001A437B6884215A507B6884229B58002B35
:10593C0000D1FFE1A423FB181B68202213400ED0DA
:10594C00A023FB181B682022134008D07B689B6E99
:10595C00002B04D07B689B6E7A68100098477B689C
:10596C0084229B5894217A1813607B681B689B686F
:10597C0040221340402B04D07B181B682822134074
:10598C0047D07B68180000F079FE7B681B689B6829
:10599C0040221340402B37D1EFF310833B663B6E14
:1059AC0090203A18136001237B667B6E83F310887A
:1059BC00C0467B681B689A687B681B6840218A43D9
:1059CC009A603B181B68BB66BB6E83F31088C0469D
:1059DC007B685B6F002B12D07B685B6F144A5A6339
:1059EC007B685B6F1800FDF78DF8031E1AD07B687F
:1059FC005B6F5A6B7B685B6F1800904712E07B689B
:105A0C00180000F0B5F90DE07B68180000F0B0F953
:105A1C0008E07B68180000F0ABF97B688422002159
:105A2C00995087E1C04685E10F0800002001000471
:105A3C00436900087B681B6E012B00D039E1A4235D
:105A4C00FB181B681022134000D132E1A023FB1875
:105A5C001B681022134000D12BE17B681B681022BD
:105A6C001A627B681B689B6840221340402B00D055
:105A7C009FE07B685B6F1B685A687E217B181A80DD
:105A8C007B181B88002B00D156E17B6858229B5A4F
:105A9C007A1812889A4200D34EE17B687A185A2100
:105AAC0012885A527B685B6F9B69202B6FD0EFF387
:105ABC0010833B633B6BBB6701237B637B6B83F383
:105ACC001088C0467B681B681A687B681B689E49F7
