:020000040800F2
:1000000000800020510D00084D0C0008530C000822
:1000100000000000000000000000000000000000E0
:10002000000000000000000000000000590C000863
:100030000000000000000000630C00086D0C0008C8
:10004000A10D0008A10D0008A10D0008A10D0008D8
:10005000A10D0008A10D0008A10D00087B0C0008EF
:10006000A10D0008910C0008A10D0008A10D0008C9
:10007000A10D0008A10D0008A10D0008A10D0008A8
:10008000A90C0008A10D0008A10D0008A10D000891
:10009000A10D0008A10D0008A10D0008A10D000888
:1000A000A10D0008A10D0008A10D0008A10D000878
:0C00B000C10C0008A10D0008A10D000803
:1000BC0010B5064C2378002B07D1054B002B02D032
:1000CC00044800E000BF0123237010BD9C000020F9
:1000DC0000000000245D0008044B10B5002B03D079
:1000EC000349044800E000BF10BDC04600000000FA
:1000FC00A0000020245D00080023C25C0133002A0C
:10010C00FBD1581E7047000003B4714649084000EB
:10011C004900095E49008E4403BC70470022430825
:10012C008B4274D303098B425FD3030A8B4244D3B3
:10013C00030B8B4228D3030C8B420DD3FF220902F5
:10014C0012BA030C8B4202D31212090265D0030BB4
:10015C008B4219D300E0090AC30B8B4201D3CB03AA
:10016C00C01A5241830B8B4201D38B03C01A5241EC
:10017C00430B8B4201D34B03C01A5241030B8B42EE
:10018C0001D30B03C01A5241C30A8B4201D3CB02D9
:10019C00C01A5241830A8B4201D38B02C01A5241BE
:1001AC00430A8B4201D34B02C01A5241030A8B42C1
:1001BC0001D30B02C01A5241CDD2C3098B4201D3D9
:1001CC00CB01C01A524183098B4201D38B01C01A57
:1001DC00524143098B4201D34B01C01A52410309CE
:1001EC008B4201D30B01C01A5241C3088B4201D37D
:1001FC00CB00C01A524183088B4201D38B00C01A2A
:10020C00524143088B4201D34B00C01A5241411A50
:10021C0000D20146524110467047FFE701B500205D
:10022C0000F006F802BDC0460029F7D076E770470B
:10023C007047C04680B500AF00F0AEFD00F030F85E
:10024C0000F0E0F900F0C0F900F08CF900F080F853
:10025C0000F034F90C4B00221A700C4B00221A706F
:10026C000B490C4B0422180003F05EFA0A4B0021D8
:10027C00180002F00BFA094BFA22D2005A63074B12
:10028C00FA221201DA62FEE7220200202302002089
:10029C001402002048010020B8000020002C01406E
:1002AC0090B599B000AF2C243B19180034231A00D8
:1002BC00002104F0F9FB1C23FB18180010231A0072
:1002CC00002104F0F1FB3B0018001C231A00002154
:1002DC0004F0EAFB21007B1802221A607B18012231
:1002EC00DA607B1810221A617B1800225A627B1884
:1002FC00180001F079FA031E01D000F03DFB1C211F
:10030C007B1807221A607B1800225A607B18002287
:10031C009A607B180022DA607B180021180001F02B
:10032C00E9FD031E01D000F027FB3B0002221A60FE
:10033C003B000022DA603B00180001F047FF031E6F
:10034C0001D000F019FBC046BD4619B090BD0000AD
:10035C0080B596B000AF4823FB18180010231A0084
:10036C00002104F0A1FB4023FB18180008231A00FD
:10037C00002104F099FB2423FB1818001C231A00FD
:10038C00002104F091FB3B1D180020231A000021D2
:10039C0004F08AFB474B484A1A60464B07225A60C6
:1003AC00444B00229A60434BFA22D200DA60414B54
:1003BC0000221A613F4B00225A613E4B80229A6107
:1003CC003C4B180002F002F8031E01D000F0D4FAE6
:1003DC0048217B18802252011A607A18354B110083
:1003EC00180002F0ABFB031E01D000F0C5FA314B34
:1003FC00180002F03BF8031E01D000F0BDFA4021BA
:10040C007B1800221A607B1800225A607A18294B3C
:10041C001100180002F0C8FF031E01D000F0ACFA66
:10042C0024217B1860221A607B18FA2292005A60F1
:10043C007B1800229A607B180022DA607B1800225D
:10044C001A617B1800225A617B1800229A61791874
:10045C00184B0022180002F0ABFA031E01D000F07A
:10046C008BFA3B1D00221A603B1D00225A603B1D7B
:10047C0000229A603B1D0022DA603B1D00221A61AB
:10048C003B1D802292015A613B1D0022DA613A1D0C
:10049C00084B1100180002F0E5FF031E01D000F01C
:1004AC006BFA044B180000F0FBFAC046BD4616B0C0
:1004BC0080BDC046B8000020002C014080B586B03D
:1004CC0000AF0823FB18180010231A00002104F0B9
:1004DC00EBFA3B00180008231A00002104F0E4FAA0
:1004EC001E4B1F4A1A601D4B07225A601B4B0022E1
:1004FC009A601A4BFA22D200DA60184B00221A6169
:10050C00164B80229A61154B180001F05FFF031EF9
:10051C0001D000F031FA08217B18802252011A60B8
:10052C007A180E4B1100180002F008FB031E01D0C4
:10053C0000F022FA3B0000221A603B0000225A60B5
:10054C003A00064B1100180002F02EFF031E01D0DA
:10055C0000F012FAC046BD4606B080BD0001002076
:10056C000004004080B500AF154B164A1A60144BBE
:10057C00E12252025A60124B00229A60104B002268
:10058C00DA600F4B00221A610D4B0C225A610C4B96
:10059C00C02292009A610A4B0022DA61084B0022B9
:1005AC001A62074B00225A62054B180002F0C8FF72
:1005BC00031E01D000F0E0F9C046BD4680BDC04628
:1005CC00480100200044004080B582B000AF0C4BC5
:1005DC005A690B4B01210A435A61094B5B69012291
:1005EC0013407B607B6800220021092000F0E4FCB2
:1005FC00092000F0F6FCC046BD4602B080BDC046E6
:10060C000010024090B58BB000AF14243B191800B9
:10061C0014231A00002104F047FA6E4B5A696D4BF3
:10062C00802109030A435A616A4B5A6980231B03D0
:10063C0013403B613B69674B5A69664B8021C90388
:10064C000A435A61634B5A698023DB031340FB60F6
:10065C00FB68604B5A695F4B802189020A435A61DF
:10066C005C4B5A6980239B021340BB60BB68594B9F
:10067C005A69584B8021C9020A435A61554B5A6931
:10068C008023DB0213407B607B68AC231901902331
:10069C00DB050022180001F06DF84F4B00223021D1
:1006AC00180001F067F84D494D4B0022180001F07D
:1006BC0061F83B19AC2212011A603B1901225A60F5
:1006CC003B1902229A603B190022DA603A199023F6
:1006DC00DB051100180000F0D5FE3B1930221A6022
:1006EC003B1901225A603B1902229A603B190022E5
:1006FC00DA603B19384A1900100000F0C3FE3B19B0
:10070C00384A1A603B1901225A603B1902229A603E
:10071C003B190022DA603B19314A1900100000F035
:10072C00B1FE21007B18C0221A607B18882252036C
:10073C005A607B1800229A600C007B18264A19001C
:10074C00100000F09FFE21007B18F02252011A606D
:10075C000C003B1900225A603B1902229A603B198B
:10076C001D4A1900100000F08DFE3B1938221A604A
:10077C003B1902225A603B1900229A603B19032252
:10078C00DA603B1900221A613B19154A1900100056
:10079C0000F078FE21007B18C02252001A607B18F2
:1007AC0001225A607B1801229A607B180022DA60C1
:1007BC007B180B4A1900100000F064FE0022002187
:1007CC00072000F0F9FB072000F00BFCC046BD46EB
:1007DC000BB090BD0010024000080048C70F00008D
:1007EC0000040048470E000080B582B000AF020044
:1007FC00BB1D1A80BB1D1B88402B1AD11E4B1B78AE
:10080C000133DAB21C4B1A701B4B1B781A001B49B4
:10081C001B4B180004F0FEF81A491B4864231E22D7
:10082C0002F0E2FE1649184864230A2202F0DCFEAC
:10083C001DE0BB1D1B88802B19D1144B1B78013379
:10084C00DAB2124B1A70114B1B781A000B490C4B75
:10085C00180004F0DFF80E490B4864231E2202F046
:10086C00C3FE0749084864230A2202F0BDFEC046B5
:10087C00BD4602B080BDC046220200203C5D00088F
:10088C001802002000000020480100202302002054
:10089C002000002080B584B000AF78600A00FB1CFB
:1008AC001A707B68FB607B68BB6011E0FB685A1CAC
:1008BC00FA601A78BB681A70BB681B78FA1C12783D
:1008CC00D31A5A1E9341DBB21A00BB689B18BB604B
:1008DC00FB681B78002BE9D1BB6800221A70C0465C
:1008EC00BD4604B080BD000080B582B000AF78601A
:1008FC001C4B0021180001F011FE1B4BFA22D200F8
:10090C005A63194BFA221201DA62184B6221180051
:10091C00FFF7C0FF154B27211800FFF7BBFF144A48
:10092C001449124B180004F095F8114B1B689BB23C
:10093C00DB099BB2002B08D0802399009023DB05A8
:10094C000122180000F016FF07E080239900902385
:10095C00DB050022180000F00DFFC046BD4602B0BA
:10096C0080BDC046B8000020002C014014020020BD
:10097C0024020020445D000880B500AF72B6C0466A
:10098C00FEE7000080B582B000AF0F4B9A690E4BAA
:10099C0001210A439A610C4B9B69012213407B6035
:1009AC007B68094BDA69084B802149050A43DA61F7
:1009BC00054BDA6980235B0513403B603B68C046FE
:1009CC00BD4602B080BDC0460010024090B58BB051
:1009DC0000AF786014243B19180014231A0000216E
:1009EC0004F062F87B681B682A4A934234D12A4B84
:1009FC009A69294B802109010A439A61264B9A690D
:100A0C0080231B0113403B613B69234B5A69224BEA
:100A1C00802189020A435A611F4B5A6980239B0229
:100A2C001340FB60FB683B198022D2001A60210046
:100A3C007B1802225A607B1800229A607B180022D5
:100A4C00DA607B1802221A617A189023DB051100F8
:100A5C00180000F017FD18E07B681B680F4A9342E2
:100A6C0013D10D4BDA690C4B02210A43DA610A4BA4
:100A7C00DB6902221340BB60BB68002200211020FE
:100A8C0000F09AFA102000F0ACFAC046BD460BB04C
:100A9C0090BDC046002C01400010024000040040F4
:100AAC0090B589B000AF78600C243B191800142362
:100ABC001A00002103F0F8FF7B681B68164A93426A
:100ACC0025D1164B5A69154B802189020A435A616C
:100ADC00124B5A6980239B021340BB60BB683B19C5
:100AEC00802252001A6021007B1802225A607B1867
:100AFC0000229A607B180022DA607B1802221A61AD
:100B0C007A189023DB051100180000F0BBFCC046DE
:100B1C00BD4609B090BDC046002C014000100240FB
:100B2C0090B58BB000AF786014243B1918001423D7
:100B3C001A00002103F0B8FF7B681B683B4A934204
:100B4C0070D13B4BDA693A4B802189020A43DA6156
:100B5C00374BDA6980239B0213403B613B69344B72
:100B6C005A69334B802189020A435A61304B5A69C6
:100B7C0080239B021340FB60FB6821007B180F2233
:100B8C001A607B1802225A607B1800229A607B182C
:100B9C000322DA607B1801221A617A189023DB0594
:100BAC001100180000F06EFC224B234A1A60214BF6
:100BBC0000225A601F4B00229A601E4B8022DA6082
:100BCC001C4B00221A611B4B00225A61194B20222C
:100BDC009A61184B0022DA61164B180000F01EFACD
:100BEC00031E01D0FFF7C8FE144AA823D35813499B
:100BFC000F229343A8228B50104AA823D3580F4995
:100C0C0009221343A8228B507B680A4A5A67094B66
:100C1C007A685A62002200211C2000F0CDF91C20B9
:100C2C0000F0DFF9C046BD460BB090BD004400405B
:100C3C0000100240D00100200800024000000240D9
:100C4C0080B500AFFEE780B500AFFEE780B500AF22
:100C5C00C046BD4680BD80B500AFC046BD4680BD18
:100C6C0080B500AF00F0E0F8C046BD4680BD80B551
:100C7C0000AF402000F09CFD802000F099FDC046A4
:100C8C00BD4680BD80B500AF034B180000F0F1FAF3
:100C9C00C046BD4680BDC046D001002080B500AF27
:100CAC00034B180001F06EFDC046BD4680BDC0462A
:100CBC000001002080B500AF034B180002F08CFD42
:100CCC00C046BD4680BDC0464801002080B586B0F8
:100CDC0000AF7860144A154BD31A7B617B693B617A
:100CEC00134B1B68002B02D1114B124A1A60104B8C
:100CFC001A687B68D3183A699A4207D203F0DCFE73
:100D0C0003000C221A6001235B4209E0084B1B68AC
:100D1C00FB60074B1A687B68D218054B1A60FB689E
:100D2C001800BD4606B080BD008000200004000005
:100D3C00280200207803002080B500AFC046BD46D5
:100D4C0080BD00000D488546FFF7F6FF0C480D49A5
:100D5C000D4A002302E0D458C4500433C4188C420A
:100D6C00F9D30A4A0A4C002301E013600432A24270
:100D7C00FBD303F0A7FEFFF75DFAFEE7008000202F
:100D8C00000000209C000020E45E00089C00002075
:100D9C0078030020FEE7000080B500AF074B1A680F
:100DAC00064B10210A431A60032000F009F8FFF7E4
:100DBC00E9FD00231800BD4680BDC046002002405E
:100DCC0090B583B000AF7860144B1C68144B1B7843
:100DDC001900FA239800FFF7A1F90300190020006D
:100DEC00FFF79CF90300180000F00BF9031E01D06B
:100DFC0001230FE07B68032B0BD8796801235B423E
:100E0C000022180000F0D8F8064B7A681A6000230C
:100E1C0000E001231800BD4603B090BD4000002047
:100E2C00480000204400002080B500AF054B1B7823
:100E3C001A00054B1B68D218034B1A60C046BD46FE
:100E4C0080BDC046480000202C02002080B500AFB9
:100E5C00024B1B681800BD4680BDC0462C0200200A
:100E6C0080B582B000AF0200FB1D1A70FB1D1B7811
:100E7C007F2B09D8FB1D1B781A001F231A40044B2B
:100E8C00012191400A001A60C046BD4602B080BDE7
:100E9C0000E100E090B583B000AF02003960FB1DAB
:100EAC001A70FB1D1B787F2B28D82F4AFB1D1B7833
:100EBC005BB29B08C0339B009B58FA1D1278110043
:100ECC0003220A40D200FF2191400A00D2431A406B
:100EDC0011003B689B01FF221A40FB1D1B78180078
:100EEC0003230340DB009A401F48FB1D1B785BB2B9
:100EFC009B080A43C0339B001A5031E01B4AFB1D70
:100F0C001B7819000F230B40083B9B0806339B00F2
:100F1C00D31804331B68FA1D1278110003220A40FF
:100F2C00D200FF2191400A00D2431A4011003B68C5
:100F3C009B01FF221A40FB1D1B7818000323034062
:100F4C00DB009A400948FB1D1B781C000F23234033
:100F5C00083B9B080A4306339B00C31804331A60F2
:100F6C00C046BD4603B090BD00E100E000ED00E0DE
:100F7C0080B582B000AF78607B685A1E80235B041A
:100F8C009A4201D3012310E00A4B7A68013A5A6065
:100F9C0001235B4203211800FFF77CFF054B002265
:100FAC009A60044B07221A6000231800BD4602B059
:100FBC0080BDC04610E000E080B584B000AFB960E1
:100FCC007A600F217B18021C1A70BA687B181B7888
:100FDC005BB211001800FFF75DFFC046BD4604B0C0
:100FEC0080BD80B582B000AF0200FB1D1A70FB1DE6
:100FFC001B785BB21800FFF733FFC046BD4602B04A
:10100C0080BD80B582B000AF78607B681800FFF7B8
:10101C00AFFF03001800BD4602B080BD80B584B0A0
:10102C0000AF78600023FB607B68002B01D10123AB
:10103C0036E07B682122022199547B681B681B686F
:10104C00FB60FB68184A1340FB607B685A687B683E
:10105C009B681A437B68DB681A437B681B691A43DD
:10106C007B685B691A437B689B691A437B68DB6905
:10107C001343FA681343FB607B681B68FA681A60B9
:10108C007B68180000F0C4F97B6800229A637B68C7
:10109C002122012199547B6820220021995400239C
:1010AC001800BD4604B080BD0FC0FFFF80B586B0F0
:1010BC0000AFF860B9607A603B601723FB18002220
:1010CC001A70FB6820229B5C012B01D102234FE09C
:1010DC00FB68202201219954FB6821229B5CDBB226
:1010EC00012B3AD1FB68212202219954FB68002282
:1010FC009A63FB681B681A68FB681B6801218A43AA
:10110C001A603B687A68B968F86800F054F9FB68B3
:10111C00DB6A002B08D0FB681B681A68FB681B682D
:10112C000E210A431A600FE0FB681B681A68FB6803
:10113C001B680A210A431A60FB681B681A68FB6863
:10114C001B6804218A431A60FB681B681A68FB68D9
:10115C001B6801210A431A6007E0FB68202200216A
:10116C0099541723FB1802221A701723FB181B78AB
:10117C001800BD4606B080BD80B582B000AF786067
:10118C007B6821229B5CDBB2022B08D07B6804229B
:10119C009A637B68202200219954012320E07B680C
:1011AC001B681A687B681B680E218A431A607B686F
:1011BC001B681A687B681B6801218A431A607B686C
:1011CC001A6C7B68DB6B012191400A005A607B68CA
:1011DC002122012199547B6820220021995400235B
:1011EC001800BD4602B080BD80B584B000AF7860F9
:1011FC000F217B1800221A707B6821229B5CDBB2CA
:10120C00022B06D07B6804229A637B1801221A7089
:10121C0028E07B681B681A687B681B680E218A4370
:10122C001A607B681B681A687B681B6801218A43FB
:10123C001A607B681A6C7B68DB6B012191400A0099
:10124C005A607B682122012199547B68202200215D
:10125C0099547B685B6B002B04D07B685B6B7A6862
:10126C00100098470F23FB181B781800BD4604B0DC
:10127C0080BD80B584B000AF78607B68DB6B1B6889
:10128C00FB607B681B681B68BB607B681B6C042263
:10129C009A401300FA68134024D0BB680422134010
:1012AC0020D07B681B681B682022134007D17B6809
:1012BC001B681A687B681B6804218A431A607B6868
:1012CC001A6C7B68DB6B042191400A005A607B68C6
:1012DC00DB6A002B00D16AE07B68DB6A7A6810005D
:1012EC00984764E07B681B6C02229A401300FA68F2
:1012FC0013402BD0BB680222134027D07B681B689D
:10130C001B68202213400BD17B681B681A687B6812
:10131C001B680A218A431A607B6821220121995497
:10132C007B681A6C7B68DB6B022191400A005A6067
:10133C007B682022002199547B689B6A002B36D055
:10134C007B689B6A7A681000984730E07B681B6C5E
:10135C0008229A401300FA68134028D0BB68082270
:10136C00134024D07B681B681A687B681B680E21AD
:10137C008A431A607B681A6C7B68DB6B0121914095
:10138C000A005A607B6801229A637B682122012142
:10139C0099547B682022002199547B681B6B002B8D
:1013AC0005D07B681B6B7A6810009847FFE7C04636
:1013BC00BD4604B080BD80B584B000AFF860B960A4
:1013CC007A603B60FB681A6CFB68DB6B0121914017
:1013DC000A005A60FB681B683A685A60FB685B68D5
:1013EC00102B08D1FB681B687A689A60FB681B6835
:1013FC00BA68DA6007E0FB681B68BA689A60FB6839
:10140C001B687A68DA60C046BD4604B080BD000037
:10141C0080B582B000AF78607B681B681A00144BF3
:10142C009A4210D87B681B68124A94466344142174
:10143C001800FEF773FE03009A007B681A647B6841
:10144C000D4ADA630FE07B681B680C4A94466344D0
:10145C0014211800FEF762FE03009A007B681A64E0
:10146C007B68074ADA63C046BD4602B080BDC04601
:10147C0007040240F8FFFDBF00000240F8FBFDBF6F
:10148C000004024080B586B000AF7860396000235C
:10149C007B6155E13B681B6801217A6991400A0028
:1014AC001340FB60FB68002B00D146E13B685B6896
:1014BC0003221340012B05D03B685B6803221340C9
:1014CC00022B30D17B689B683B617B695B000322FC
:1014DC009A401300DA433B6913403B613B68DA687E
:1014EC007B695B009A4013003A6913433B617B684C
:1014FC003A699A607B685B683B6101227B699A4020
:10150C001300DA433B6913403B613B685B681B0982
:10151C0001221A407B699A4013003A6913433B61DC
:10152C007B683A695A603B685B6803221340032B63
:10153C0017D07B68DB683B617B695B0003229A40B8
:10154C001300DA433B6913403B613B689A687B6943
:10155C005B009A4013003A6913433B617B683A691C
:10156C00DA603B685B6803221340022B23D17B6952
:10157C00DA087B6808329200D3583B617B690722FA
:10158C0013409B000F229A401300DA433B6913402F
:10159C003B613B681A697B6907210B409B009A40B1
:1015AC0013003A6913433B617B69DA087B680832A4
:1015BC0092003969D1507B681B683B617B695B0089
:1015CC0003229A401300DA433B6913403B613B68AA
:1015DC005B6803221A407B695B009A4013003A69EE
:1015EC0013433B617B683A691A603B685A68C023B5
:1015FC009B02134000D1A0E0574B9A69564B012136
:10160C000A439A61544B9B6901221340BB60BB682F
:10161C00524A7B699B0802339B009B583B617B6958
:10162C00032213409B000F229A401300DA433B69BC
:10163C0013403B617A689023DB059A4219D07B6892
:10164C00474A934213D07B68464A93420DD07B683D
:10165C00454A934207D07B68444A934201D1042304
:10166C0008E0052306E0032304E0022302E0012343
:10167C0000E000237A6903210A40920093403A6902
:10168C0013433B6135497B699B0802339B003A69E4
:10169C005A50374B9B683B61FB68DA433B691340FC
:1016AC003B613B685A6880235B03134003D03A6963
:1016BC00FB6813433B612E4B3A699A602C4BDB68F9
:1016CC003B61FB68DA433B6913403B613B685A68FA
:1016DC0080239B03134003D03A69FB6813433B619F
:1016EC00234B3A69DA60224B5B683B61FB68DA4357
:1016FC003B6913403B613B685A6880239B02134053
:10170C0003D03A69FB6813433B61194B3A695A6041
:10171C00174B1B683B61FB68DA433B6913403B6129
:10172C003B685A6880235B02134003D03A69FB681C
:10173C0013433B610E4B3A691A607B6901337B6141
:10174C003B681A687B69DA40131E00D0A2E6C046DB
:10175C00C046BD4606B080BD0010024000000140EE
:10176C000004004800080048000C00480010004825
:10177C000004014080B582B000AF78600800110011
:10178C00BB1C021C1A807B1C0A1C1A707B1C1B784D
:10179C00002B04D0BB1C1A887B689A6103E0BB1C2D
:1017AC001A887B689A62C046BD4602B080BD0000B4
:1017BC0080B582B000AF0200BB1D1A80094B5B697B
:1017CC00BA1D1288134008D0064BBA1D12885A61F4
:1017DC00BB1D1B881800FFF707F8C046BD4602B0BA
:1017EC0080BDC0460004014080B588B000AF786071
:1017FC007B68002B02D1012300F076FB7B681B6811
:10180C000122134000D18EE0C54B5B680C221340C3
:10181C00042B0ED0C24B5B680C221340082B17D143
:10182C00BF4B5A68C0235B021A4080235B029A426A
:10183C000ED1BB4B1A6880239B02134000D171E080
:10184C007B685B68002B00D06CE0012300F04CFB44
:10185C007B685B68012B07D1B14B1A68B04B8021B8
:10186C0049020A431A602FE07B685B68002B0CD19D
:10187C00AB4B1A68AA4BAB490A401A60A84B1A68C2
:10188C00A74BA9490A401A601EE07B685B68052BD0
:10189C000ED1A34B1A68A24B8021C9020A431A60CD
:1018AC009F4B1A689E4B802149020A431A600BE039
:1018BC009B4B1A689A4B9B490A401A60984B1A68C2
:1018CC00974B99490A401A607B685B68002B14D0CF
:1018DC00FFF7BCFA0300BB6108E0FFF7B7FA0200A0
:1018EC00BB69D31A642B01D90323FDE28C4B1A6814
:1018FC0080239B021340F0D015E0FFF7A7FA0300FA
:10190C00BB6108E0FFF7A2FA0200BB69D31A642B93
:10191C0001D90323E8E2824B1A6880239B0213400F
:10192C00F0D100E0C0467B681B680222134000D156
:10193C006CE07B4B5B680C2213400ED0784B5B68E1
:10194C000C221340082B1FD1754B5A68C0235B0225
:10195C001A4080231B029A4216D1714B1B6802223B
:10196C00134005D07B68DB68012B01D00123BBE25F
:10197C006B4B1B68F822934319007B681B69DA00D8
:10198C00674B0A431A6041E07B68DB68002B24D06C
:10199C00634B1A68624B01210A431A60FFF756FA2F
:1019AC000300BB6108E0FFF751FA0200BB69D31AD0
:1019BC00022B01D9032397E2594B1B6802221340D7
:1019CC00F1D0574B1B68F822934319007B681B69B5
:1019DC00DA00534B0A431A6018E0514B1A68504B0B
:1019EC0001218A431A60FFF731FA0300BB6108E05A
:1019FC00FFF72CFA0200BB69D31A022B01D903237F
:101A0C0072E2474B1B6802221340F1D17B681B68C2
:101A1C000822134036D07B68DB69002B19D0404B71
:101A2C005A6A3F4B01210A435A62FFF70FFA03002F
:101A3C00BB6108E0FFF70AFA0200BB69D31A022B5C
:101A4C0001D9032350E2364B5B6A02221340F1D0DA
:101A5C0018E0334B5A6A324B01218A435A62FFF722
:101A6C00F5F90300BB6108E0FFF7F0F90200BB6970
:101A7C00D31A022B01D9032336E2294B5B6A0222CB
:101A8C001340F1D17B681B680422134000D1B5E0F0
:101A9C001F203B1800221A70214BDA6980235B054A
:101AAC00134010D11E4BDA691D4B802149050A43A6
:101ABC00DA611B4BDA6980235B051340FB60FB6822
:101ACC003B1801221A70194B1A6880235B001340D3
:101ADC001AD1164B1A68154B802149000A431A601B
:101AEC00FFF7B4F90300BB6108E0FFF7AFF90200A0
:101AFC00BB69D31A642B01D90323F5E10B4B1A688C
:101B0C0080235B001340F0D07B689B68012B0FD1C6
:101B1C00034B1A6A024B01210A431A6236E0C04693
:101B2C0000100240FFFFFEFFFFFFFBFF00700040B4
:101B3C007B689B68002B0CD1CA4B1A6AC94B0121DC
:101B4C008A431A62C74B1A6AC64B04218A431A622B
:101B5C001CE07B689B68052B0CD1C24B1A6AC14BED
:101B6C0004210A431A62BF4B1A6ABE4B01210A4375
:101B7C001A620BE0BB4B1A6ABA4B01218A431A62F8
:101B8C00B84B1A6AB74B04218A431A627B689B686C
:101B9C00002B14D0FFF75AF90300BB6109E0FFF7E3
:101BAC0055F90200BB69D31AAF4A934201D90323FA
:101BBC009AE1AC4B1B6A02221340F0D013E0FFF702
:101BCC0045F90300BB6109E0FFF740F90200BB696E
:101BDC00D31AA54A934201D9032385E1A14B1B6A71
:101BEC0002221340F0D11F23FB181B78012B05D1C7
:101BFC009C4BDA699B4B9D490A40DA617B681B68F8
:101C0C001022134063D07B685B69012B2AD1954B62
:101C1C005A6B944B04210A435A63924B5A6B914B67
:101C2C0001210A435A63FFF711F90300BB6108E075
:101C3C00FFF70CF90200BB69D31A022B01D903235D
:101C4C0052E1884B5B6B02221340F1D0854B5B6BEE
:101C5C00F822934319007B689B69DA00814B0A4395
:101C6C005A6334E07B685B69053311D17D4B5A6B49
:101C7C007C4B04218A435A637A4B5B6BF822934367
:101C8C0019007B689B69DA00764B0A435A631EE0A5
:101C9C00744B5A6B734B04210A435A63714B5A6B46
:101CAC00704B01218A435A63FFF7D0F80300BB61E4
:101CBC0008E0FFF7CBF80200BB69D31A022B01D95D
:101CCC00032311E1674B5B6B02221340F1D17B685C
:101CDC001B68202213405CD0624B5B680C221340C3
:101CEC000C2B0ED05F4B5B680C221340082B14D1CD
:101CFC005C4B5A68C0235B021A40C0235B029A42B9
:101D0C000BD1584B5A6B80239B02134040D07B68FD
:101D1C001B6A012B3CD00123E6E07B681B6A002B7D
:101D2C001BD0504B5A6B4F4B802149020A435A63CC
:101D3C00FFF78CF80300BB6108E0FFF787F802009F
:101D4C00BB69D31A022B01D90323CDE0454B5A6B47
:101D5C0080239B021340F0D01BE0424B5A6B414B4B
:101D6C0043490A405A63FFF771F80300BB6108E06E
:101D7C00FFF76CF80200BB69D31A022B01D90323BD
:101D8C00B2E0384B5A6B80239B021340F0D100E039
:101D9C00C0467B685B6A002B00D1A4E0314B5B68CA
:101DAC000C221340082B00D178E07B685B6A022B75
:101DBC004CD12C4B1A682B4B2E490A401A60FFF75A
:101DCC0045F80300BB6108E0FFF740F80200BB696F
:101DDC00D31A022B01D9032386E0224B1A688023E5
:101DEC009B041340F0D11F4BDB6A0F229343190065
:101DFC007B681A6B1B4B0A43DA621A4B5B681E4AF0
:101E0C00134019007B68DA6A7B689B6A1A43154B8E
:101E1C000A435A60134B1A68124B802149040A4337
:101E2C001A60FFF713F80300BB6108E0FFF70EF828
:101E3C000200BB69D31A022B01D9032354E0094BCE
:101E4C001A6880239B041340F0D04CE0054B1A68B1
:101E5C00044B08490A401A60FEF7F8FF0300BB6107
:101E6C0015E0C0460010024088130000FFFFFFEF92
:101E7C00FFFFFEFFFFFFFFFEFF7FC2FFFEF7E6FF47
:101E8C000200BB69D31A022B01D903232CE0184B97
:101E9C001A6880239B041340F0D124E07B685B6AB2
:101EAC00012B01D101231FE0114B5B687B61104BAF
:101EBC00DB6A3B617A69C0235B021A407B689B6AD0
:101ECC009A420ED13B690F221A407B681B6B9A42D7
:101EDC0007D17A69F0239B031A407B68DB6A9A422C
:101EEC0001D0012300E000231800BD4608B080BDDE
:101EFC000010024080B584B000AF786039607B6818
:101F0C00002B01D10123BFE0614B1B680122134060
:101F1C003A689A4211D95E4B1B680122934319000F
:101F2C005B4B3A680A431A60594B1B6801221340F9
:101F3C003A689A4201D00123A6E07B681B68022212
:101F4C00134015D07B681B680422134006D0514BFC
:101F5C005A68504BE021C9000A435A604D4B5B68EC
:101F6C00F022934319007B689A684A4B0A435A60E3
:101F7C007B681B68012213404CD07B685B68012B8B
:101F8C0007D1444B1A6880239B02134020D10123B4
:101F9C007AE07B685B68022B07D13E4B1A68802382
:101FAC009B04134014D101236EE07B685B68032B08
:101FBC0007D1384B5A6B80239B02134008D1012365
:101FCC0062E0344B1B680222134001D101235BE019
:101FDC00304B5B680322934319007B685A682D4B86
:101FEC000A435A60FEF732FF0300FB6009E0FEF77C
:101FFC002DFF0200FB68D31A274A934201D9032311
:10200C0042E0244B5B680C221A407B685B689B00A7
:10201C009A42ECD11E4B1B68012213403A689A423B
:10202C0011D21B4B1B68012293431900184B3A68C1
:10203C000A431A60164B1B68012213403A689A42F5
:10204C0001D0012320E07B681B680422134009D0D7
:10205C00104B5B68114A134019007B68DA680D4B12
:10206C000A435A6000F020F801000A4B5B681B0918
:10207C000F2213400A4AD35C0A00DA40094B1A605B
:10208C000320FEF79DFE00231800BD4604B080BD62
:10209C00002002400010024088130000FFF8FFFFF0
:1020AC00545D00084000002080B586B000AF0023CE
:1020BC00FB600023BB6000237B6100237B6000235B
:1020CC003B612D4B5B68FB60FB680C2213400C2BB7
:1020DC0046D048D8042B02D0082B03D043E0274B22
:1020EC003B6143E0FB689B0C0F221340244AD35CFA
:1020FC007B60214BDB6A0F221340224AD35CBB600E
:10210C00FA68C0235B021A4080235B029A4209D111
:10211C00B9681A48FEF702F803001A007B685343AB
:10212C007B611AE0FA68C0235B021A40C0235B0291
:10213C009A4209D1B9681448FDF7F0FF03001A0060
:10214C007B6853437B6108E0B9680C48FDF7E6FFF8
:10215C0003001A007B6853437B617B693B6105E09C
:10216C00094B3B6102E0054B3B61C0463B691800E3
:10217C00BD4606B080BDC0460010024000127A0079
:10218C006C5D00087C5D0008006CDC0280B500AF63
:10219C00024B1B681800BD4680BDC04640000020A5
:1021AC0080B500AFFFF7F2FF0100064B5B681B0A1E
:1021BC0007221340044AD35CD9400B001800BD46DB
:1021CC0080BDC04600100240645D000880B586B03A
:1021DC0000AF786000233B610023FB607B681A68CA
:1021EC0080235B02134000D18EE017203B180022A5
:1021FC001A706E4BDA6980235B05134010D16B4B60
:10220C00DA696A4B802149050A43DA61674BDA695E
:10221C0080235B051340BB60BB683B1801221A701E
:10222C00634B1A6880235B0013401AD1604B1A6809
:10223C005F4B802149000A431A60FEF707FE03003A
:10224C003B6108E0FEF702FE02003B69D31A642BE7
:10225C0001D90323A6E0564B1A6880235B00134078
:10226C00F0D0524B1A6AC0239B001340FB60FB68F2
:10227C00002B34D07B685A68C0239B001340FA684B
:10228C009A422CD0494B1B6A4A4A1340FB60474B7D
:10229C001A6A464B802149020A431A62434B1A6A56
:1022AC00424B45490A401A62404BFA681A62FB6875
:1022BC000122134013D0FEF7C9FD03003B6109E076
:1022CC00FEF7C4FD02003B69D31A3C4A934201D984
:1022DC00032367E0354B1B6A02221340F0D0334BCB
:1022EC001B6A344A134019007B685A682F4B0A4307
:1022FC001A621723FB181B78012B05D12B4BDA69BB
:10230C002A4B2F490A40DA617B681B680122134073
:10231C0009D0264B1B6B0322934319007B689A68E8
:10232C00224B0A431A637B681B680222134009D0B4
:10233C001E4B1B6B234A134019007B68DA681B4B3E
:10234C000A431A637B681A688023DB02134009D0A6
:10235C00164B1B6B1C4A134019007B681A69134BF4
:10236C000A431A637B681B682022134009D00F4B69
:10237C001B6B1022934319007B685A690B4B0A4361
:10238C001A637B681A688023DB00134009D0074B63
:10239C001B6B4022934319007B689A69034B0A43D9
:1023AC001A6300231800BD4606B080BD0010024021
:1023BC0000700040FFFCFFFFFFFFFEFF88130000D2
:1023CC00FFFFFFEFFFFFFCFFFFFFF3FF80B582B0C5
:1023DC0000AF78607B68002B01D1012342E07B6861
:1023EC003D229B5CDBB2002B07D17B683C22002199
:1023FC0099547B681800FEF7E9FA7B683D220221AC
:10240C0099547B681A687B6804331900100000F03B
:10241C0091FC7B684622012199547B683E22012164
:10242C0099547B683F22012199547B6840220121F9
:10243C0099547B684122012199547B6842220121E5
:10244C0099547B684322012199547B6844220121D1
:10245C0099547B684522012199547B683D220121C6
:10246C00995400231800BD4602B080BD80B582B0DF
:10247C0000AF78607B68002B01D1012342E07B68C0
:10248C003D229B5CDBB2002B07D17B683C220021F8
:10249C0099547B68180000F039F87B683D220221C2
:1024AC0099547B681A687B6804331900100000F09B
:1024BC0041FC7B684622012199547B683E22012114
:1024CC0099547B683F22012199547B684022012159
:1024DC0099547B684122012199547B684222012145
:1024EC0099547B684322012199547B684422012131
:1024FC0099547B684522012199547B683D22012126
:10250C00995400231800BD4602B080BD80B582B03E
:10251C0000AF7860C046BD4602B080BD80B584B0C7
:10252C0000AF786039603B68002B08D17B683E2295
:10253C009B5CDBB2013B5A1E9341DBB21FE03B6854
:10254C00042B08D17B683F229B5CDBB2013B5A1EFB
:10255C009341DBB213E03B68082B08D17B68402227
:10256C009B5CDBB2013B5A1E9341DBB207E07B68FC
:10257C0041229B5CDBB2013B5A1E9341DBB2002B28
:10258C0001D0012374E03B68002B04D17B683E2210
:10259C000221995413E03B68042B04D17B683F2241
:1025AC00022199540BE03B68082B04D17B68402234
:1025BC000221995403E07B684122022199547B68E3
:1025CC001B6839680122180000F0CAFE7B681B6882
:1025DC00294A93420ED07B681B68284A934209D043
:1025EC007B681B68264A934204D07B681B68254A8B
:1025FC00934201D1012300E00023002B08D07B681B
:10260C001B685A6C7B681B68802109020A435A6458
:10261C007B681B68184A93420FD07B681A6880232A
:10262C00DB059A4209D07B681B68174A934204D099
:10263C007B681B68114A934211D17B681B689B68AD
:10264C0007221340FB60FB68062B10D07B681B68CD
:10265C001A687B681B6801210A431A6007E07B68D3
:10266C001B681A687B681B6801210A431A600023E7
:10267C001800BD4604B080BD002C01400040014054
:10268C0000440140004801400004004080B582B085
:10269C0000AF786039607B681B68396800221800CD
:1026AC0000F05EFE7B681B682F4A93420ED07B685D
:1026BC001B682E4A934209D07B681B682C4A9342B4
:1026CC0004D07B681B682B4A934201D1012300E0A4
:1026DC000023002B13D07B681B681B6A264A13400F
:1026EC000DD17B681B681B6A244A134007D17B6899
:1026FC001B685A6C7B681B6821490A405A647B68CA
:10270C001B681B6A1C4A13400DD17B681B681B6A33
:10271C001A4A134007D17B681B681A687B681B68D0
:10272C0001218A431A603B68002B04D17B683E224E
:10273C000121995413E03B68042B04D17B683F22A0
:10274C00012199540BE03B68082B04D17B68402293
:10275C000121995403E07B68412201219954002303
:10276C001800BD4602B080BD002C01400040014065
:10277C0000440140004801401111000044040000D5
:10278C00FF7FFFFF80B582B000AF78607B681B686D
:10279C001B6902221340022B24D17B681B68DB6867
:1027AC0002221340022B1DD17B681B68032252426C
:1027BC001A617B6801221A777B681B689B6903226C
:1027CC00134004D07B68180000F09CFA07E07B688B
:1027DC00180000F08FFA7B68180000F09BFA7B68F9
:1027EC0000221A777B681B681B6904221340042B98
:1027FC0025D17B681B68DB6804221340042B1ED197
:10280C007B681B68052252421A617B6802221A7788
:10281C007B681B689A69C0239B00134004D07B68BB
:10282C00180000F06FFA07E07B68180000F062FAFD
:10283C007B68180000F06EFA7B6800221A777B68C0
:10284C001B681B6908221340082B24D17B681B686A
:10285C00DB6808221340082B1DD17B681B680922FA
:10286C0052421A617B6804221A777B681B68DB6909
:10287C000322134004D07B68180000F043FA07E0F1
:10288C007B68180000F036FA7B68180000F042FAFA
:10289C007B6800221A777B681B681B691022134027
:1028AC00102B25D17B681B68DB6810221340102B82
:1028BC001ED17B681B68112252421A617B68082268
:1028CC001A777B681B68DA69C0239B00134004D01D
:1028DC007B68180000F016FA07E07B68180000F01F
:1028EC0009FA7B68180000F015FA7B6800221A7749
:1028FC007B681B681B6901221340012B0FD17B687D
:10290C001B68DB6801221340012B08D17B681B6814
:10291C00022252421A617B68180000F0E3F97B68CE
:10292C001B681B6980221340802B0FD17B681B68AE
:10293C00DB6880221340802B08D17B681B688122C6
:10294C0052421A617B68180000F0F2FD7B681B682C
:10295C001B6940221340402B0FD17B681B68DB683E
:10296C0040221340402B08D17B681B684122524205
:10297C001A617B68180000F0D5F97B681B681B692D
:10298C0020221340202B0FD17B681B68DB68202290
:10299C001340202B08D17B681B68212252421A61FC
:1029AC007B68180000F0BCFDC046BD4602B080BD7F
:1029BC0080B586B000AFF860B9607A601723FB1859
:1029CC0000221A70FB683C229B5C012B01D1022374
:1029DC00ADE0FB683C22012199547B680C2B00D1A3
:1029EC0076E07B680C2B00D995E07B68082B4ED0E9
:1029FC007B68082B00D98EE07B68002B03D07B68AA
:102A0C00042B21D087E0FB681B68BA681100180002
:102A1C0000F010FAFB681B689A69FB681B680821B8
:102A2C000A439A61FB681B689A69FB681B6804215E
:102A3C008A439A61FB681B689969BB681A69FB68D1
:102A4C001B680A439A616BE0FB681B68BA6811004B
:102A5C00180000F077FAFB681B689A69FB681B6822
:102A6C00802109010A439A61FB681B689A69FB681B
:102A7C001B6831490A409A61FB681B689969BB68FD
:102A8C001B691A02FB681B680A439A6148E0FB68E1
:102A9C001B68BA681100180000F0D8FAFB681B68B4
:102AAC00DA69FB681B6808210A43DA61FB681B685A
:102ABC00DA69FB681B6804218A43DA61FB681B68CE
:102ACC00D969BB681A69FB681B680A43DA6127E09D
:102ADC00FB681B68BA681100180000F03DFBFB682E
:102AEC001B68DA69FB681B68802109010A43DA61FB
:102AFC00FB681B68DA69FB681B680F490A40DA61DE
:102B0C00FB681B68D969BB681B691A02FB681B68E8
:102B1C000A43DA6104E01723FB1801221A70C0463D
:102B2C00FB683C22002199541723FB181B781800D2
:102B3C00BD4606B080BDC046FFFBFFFF80B584B02C
:102B4C0000AF786039600F23FB1800221A707B6885
:102B5C003C229B5C012B01D10223BCE07B683C2214
:102B6C00012199547B683D22022199547B681B6892
:102B7C009B68BB60BB6877229343BB60BB68584AB9
:102B8C001340BB607B681B68BA689A603B681B6823
:102B9C0080229201934240D080229201934200D92C
:102BAC0088E080225201934200D188E080225201B9
:102BBC00934200D97EE0702B18D000D97AE0602BBC
:102BCC004FD000D976E0502B3BD000D972E0402B8F
:102BDC0057D000D96EE0302B63D06BD8202B60D04F
:102BEC0068D8002B5DD0102B5BD063E07B68186835
:102BFC003B6899683B685A683B68DB6800F090FB5F
:102C0C007B681B689B68BB60BB6877221343BB6007
:102C1C007B681B68BA689A6052E07B6818683B68EE
:102C2C0099683B685A683B68DB6800F079FB7B6805
:102C3C001B689A687B681B688021C9010A439A60EB
:102C4C003EE07B6818683B6859683B68DB681A0093
:102C5C0000F0ECFA7B681B685021180000F046FB72
:102C6C002EE07B6818683B6859683B68DB681A0083
:102C7C0000F00AFB7B681B686021180000F036FB33
:102C8C001EE07B6818683B6859683B68DB681A0073
:102C9C0000F0CCFA7B681B684021180000F026FB82
:102CAC000EE07B681A683B681B681900100000F086
:102CBC001DFB05E00F23FB1801221A7000E0C04633
:102CCC007B683D22012199547B683C220021995458
:102CDC000F23FB181B781800BD4604B080BDC046FE
:102CEC00FF00FFFF80B582B000AF7860C046BD46E4
:102CFC0002B080BD80B582B000AF7860C046BD46E2
:102D0C0002B080BD80B582B000AF7860C046BD46D1
:102D1C0002B080BD80B582B000AF7860C046BD46C1
:102D2C0002B080BD80B582B000AF7860C046BD46B1
:102D3C0002B080BD80B584B000AF786039607B682C
:102D4C001B68FB607B68344A934208D07A68802306
:102D5C00DB059A4203D07B68304A934208D1FB686A
:102D6C0070229343FB603B685B68FA681343FB601B
:102D7C007B68294A934218D07A688023DB059A42F3
:102D8C0013D07B68254A93420FD07B68244A934228
:102D9C000BD07B68234A934207D07B68224A93422C
:102DAC0003D07B68214A934208D1FB68204A134028
:102DBC00FB603B68DB68FA681343FB60FB688022AE
:102DCC0093431A003B685B691343FB607B68FA68AA
:102DDC001A603B689A687B68DA623B681A687B68A1
:102DEC009A627B680C4A93420BD07B680D4A9342E3
:102DFC0007D07B680C4A934203D07B680B4A934202
:102E0C0003D13B681A697B681A637B6801225A619B
:102E1C00C046BD4604B080BD002C014000040040FB
:102E2C0000200040004001400044014000480140A7
:102E3C00FFFCFFFF80B586B000AF786039607B681F
:102E4C001B6A012293431A007B681A627B681B6A17
:102E5C007B617B685B683B617B689B69FB60FB68A3
:102E6C0070229343FB60FB6803229343FB603B6837
:102E7C001B68FA681343FB607B69022293437B61F6
:102E8C003B689B687A6913437B617B68274A934252
:102E9C000BD07B68264A934207D07B68254A934225
:102EAC0003D07B68244A93420CD17B69082293435C
:102EBC007B613B68DB687A6913437B617B69042225
:102ECC0093437B617B68194A93420BD07B68184A09
:102EDC00934207D07B68174A934203D07B68164A0B
:102EEC00934211D13B69154A13403B613B69144A2B
:102EFC0013403B613B685B693A6913433B613B6838
:102F0C009B693A6913433B617B683A695A607B68F9
:102F1C00FA689A613B685A687B685A637B687A697D
:102F2C001A62C046BD4606B080BDC046002C0140AA
:102F3C00004001400044014000480140FFFEFFFFFB
:102F4C00FFFDFFFF80B586B000AF786039607B680D
:102F5C001B6A102293431A007B681A627B681B6AF7
:102F6C007B617B685B683B617B689B69FB60FB6892
:102F7C002E4A1340FB60FB682D4A1340FB603B68F4
:102F8C001B681B02FA681343FB607B692022934386
:102F9C007B613B689B681B017A6913437B617B688F
:102FAC00244A93420DD17B69802293437B613B6819
:102FBC00DB681B017A6913437B617B694022934375
:102FCC007B617B681B4A93420BD07B681A4A934205
:102FDC0007D07B68194A934203D07B68184A934206
:102FEC0013D13B69174A13403B613B69164A1340A6
:102FFC003B613B685B699B003A6913433B613B68EF
:10300C009B699B003A6913433B617B683A695A6040
:10301C007B68FA689A613B685A687B689A637B683C
:10302C007A691A62C046BD4606B080BDFF8FFFFFAD
:10303C00FFFCFFFF002C0140004001400044014018
:10304C0000480140FFFBFFFFFFF7FFFF80B586B094
:10305C0000AF786039607B681B6A354A1A407B6820
:10306C001A627B681B6A7B617B685B683B617B686F
:10307C00DB69FB60FB6870229343FB60FB680322F7
:10308C009343FB603B681B68FA681343FB607B69E6
:10309C00284A13407B613B689B681B027A69134387
:1030AC007B617B68244A93420DD17B69234A134090
:1030BC007B613B68DB681B027A6913437B617B692C
:1030CC001F4A13407B617B681B4A93420BD07B6881
:1030DC001C4A934207D07B681B4A934203D07B68FF
:1030EC001A4A934213D13B69194A13403B613B691D
:1030FC00184A13403B613B685B691B013A691343F7
:10310C003B613B689B691B013A6913433B617B68DC
:10311C003A695A607B68FA68DA613B685A687B687E
:10312C00DA637B687A691A62C046BD4606B080BD18
:10313C00FFFEFFFFFFFDFFFF002C0140FFF7FFFF2D
:10314C00FFFBFFFF004001400044014000480140EC
:10315C00FFEFFFFFFFDFFFFF80B586B000AF7860A9
:10316C0039607B681B6A284A1A407B681A627B6844
:10317C001B6A3B617B685B687B617B68DB69FB601E
:10318C00FB68224A1340FB60FB68214A1340FB603A
:10319C003B681B681B02FA681343FB603B691D4AC2
:1031AC0013403B613B689B681B033A6913433B61CB
:1031BC007B68194A93420BD07B68184A934207D01C
:1031CC007B68174A934203D07B68164A934209D115
:1031DC007B69154A13407B613B685B699B017A698B
:1031EC0013437B617B687A695A607B68FA68DA61A1
:1031FC003B685A687B681A647B683A691A62C046F5
:10320C00BD4606B080BDC046FFEFFFFFFF8FFFFF3E
:10321C00FFFCFFFFFFDFFFFF002C014000400140DF
:10322C000044014000480140FFBFFFFF80B586B05D
:10323C0000AFF860B9607A60FB681B6A7B61FB6861
:10324C001B6A012293431A00FB681A62FB689B6994
:10325C003B613B69F02293433B617B681B013A69FC
:10326C0013433B617B690A2293437B617A69BB6898
:10327C0013437B61FB683A699A61FB687A691A624D
:10328C00C046BD4606B080BD80B586B000AFF860C4
:10329C00B9607A60FB681B6A102293431A00FB68C2
:1032AC001A62FB689B697B61FB681B6A3B617B69EB
:1032BC000D4A13407B617B681B037A6913437B6166
:1032CC003B69A02293433B61BB681B013A691343E2
:1032DC003B61FB687A699A61FB683A691A62C0467D
:1032EC00BD4606B080BDC046FF0FFFFF80B584B061
:1032FC0000AF786039607B689B68FB60FB6870226C
:10330C009343FB603A68FB68134307221343FB604B
:10331C007B68FA689A60C046BD4604B080BD000068
:10332C0080B586B000AFF860B9607A603B60FB682E
:10333C009B687B617B69094A13407B613B681A027D
:10334C007B681A43BB6813437A6913437B61FB6840
:10335C007A699A60C046BD4606B080BDFF00FFFF8B
:10336C0080B586B000AFF860B9607A60BB681F2288
:10337C00134001229A4013007B61FB681B6A7A6937
:10338C00D2431A40FB681A62FB681A6ABB681F2199
:10339C000B40796899400B001A43FB681A62C046CF
:1033AC00BD4606B080BD000080B584B000AF78602B
:1033BC0039607B683C229B5C012B01D1022347E0E6
:1033CC007B683C22012199547B683D22022199544F
:1033DC007B681B685B68FB607B681B689B68BB60D9
:1033EC00FB6870229343FB603B681B68FA681343CD
:1033FC00FB607B681B68FA685A607B681B68164A1E
:10340C0093420FD07B681A688023DB059A4209D05F
:10341C007B681B68114A934204D07B681B68104A76
:10342C0093420CD1BB6880229343BB603B685B68C2
:10343C00BA681343BB607B681B68BA689A607B6888
:10344C003D22012199547B683C2200219954002390
:10345C001800BD4604B080BD002C014000040040A3
:10346C000040014080B584B000AF78603960002323
:10347C00FB607B683C229B5C012B01D102233EE06C
:10348C007B683C2201219954FB68FF2293431A006C
:10349C003B68DB681343FB60FB681B4A1A403B68C4
:1034AC009B681343FB60FB68184A1A403B685B68D7
:1034BC001343FB60FB68164A1A403B681B681343B6
:1034CC00FB60FB68134A1A403B681B691343FB60A3
:1034DC00FB68114A1A403B685B691343FB60FB684D
:1034EC000E4A1A403B68DB691343FB607B681B6820
:1034FC00FA685A647B683C22002199540023180016
:10350C00BD4604B080BDC046FFFCFFFFFFFBFFFFC4
:10351C00FFF7FFFFFFEFFFFFFFDFFFFFFFBFFFFF27
:10352C0080B582B000AF7860C046BD4602B080BDA9
:10353C0080B582B000AF7860C046BD4602B080BD99
:10354C0080B582B000AF78607B68002B01D101237D
:10355C0044E07B68DB6F002B07D17B68782200216D
:10356C0099547B681800FDF7DBFA7B682422DA6734
:10357C007B681B681A687B681B6801218A431A6088
:10358C007B68180000F02CFC0300012B01D10123F7
:10359C0024E07B685B6A002B03D07B68180000F08A
:1035AC0007FE7B681B685A687B681B680D490A40DC
:1035BC005A607B681B689A687B681B682A218A435F
:1035CC009A607B681B681A687B681B6801210A4338
:1035DC001A607B68180000F09FFE03001800BD46BF
:1035EC0002B080BDFFB7FFFF80B58AB002AFF860B4
:1035FC00B9603B60BB1D1A80FB68DB6F202B00D0D1
:10360C008DE0BB68002B03D0BB1D1B88002B01D1A8
:10361C00012385E0FB689A6880235B019A4209D1FB
:10362C00FB681B69002B05D1BB680122134001D03C
:10363C00012375E0FB68842200219950FB6821224C
:10364C00DA67FDF703FC03007B61FB68BA1D5021B0
:10365C0012885A52FB68BA1D522112885A52FB68C2
:10366C009A6880235B019A4208D1FB681B69002B86
:10367C0004D10023FB61BB68BB6103E0BB68FB6149
:10368C000023BB6130E07A69F8683B680093130053
:10369C000022802100F0E8FE031E04D0FB682022EB
:1036AC00DA6703233CE0FB69002B0BD1BB691A885A
:1036BC00FB681B68D205D20D92B21A85BB69023326
:1036CC00BB6108E0FB691A78FB681B6892B21A852B
:1036DC00FB690133FB61FB6852229B5A9BB2013B95
:1036EC0099B2FB6852229952FB6852229B5A9BB2A8
:1036FC00002BC8D17A69F8683B680093130000224C
:10370C00402100F0B1FE031E04D0FB682022DA67D2
:10371C00032305E0FB682022DA67002300E0022384
:10372C001800BD4608B080BD80B588B000AFF86009
:10373C00B960BB1D1A80FB6880229B58202B45D199
:10374C00BB68002B03D0BB1D1B88002B01D10123B0
:10375C003DE0FB689A6880235B019A4209D1FB68C3
:10376C001B69002B05D1BB680122134001D001233A
:10377C002DE0FB6800221A66FB681B685A688023E0
:10378C001B04134019D0EFF310833B613B69FB61C1
:10379C0001237B617B6983F31088C046FB681B683F
:1037AC001A68FB681B688021C9040A431A60FB690C
:1037BC00BB61BB6983F31088C046BB1D1A88B9680E
:1037CC00FB68180000F0BAFE030000E002231800AA
:1037DC00BD4608B080BD000090B5ABB000AF7860BE
:1037EC007B681B68DB69A422B9180B607B681B68BB
:1037FC001B68A02039180B607B681B689B689C2198
:10380C0079180B601100BB181B68994A1340982259
:10381C00BC182360BB181B68002B14D17B181B68C9
:10382C00202213400FD03B181B68202213400AD0D3
:10383C007B689B6E002B00D19EE27B689B6E7A6846
:10384C001000984798E29823FB181B68002B00D1B6
:10385C0014E19C23FB181B680122134006D1A02302
:10386C00FB181B68834A134000D107E1A423FB1803
:10387C001B680122134012D0A023FB181A68802366
:10388C005B0013400BD07B681B6801221A627B68BB
:10389C0084229B5801221A437B6884215A50A4230A
:1038AC00FB181B680222134011D09C23FB181B68C9
:1038BC00012213400BD07B681B6802221A627B68C2
:1038CC0084229B5804221A437B6884215A50A423D7
:1038DC00FB181B680422134011D09C23FB181B6897
:1038EC00012213400BD07B681B6804221A627B6890
:1038FC0084229B5802221A437B6884215A50A423A9
:10390C00FB181B680822134017D0A023FB181B6858
:10391C002022134005D19C23FB181B680122134065
:10392C000BD07B681B6808221A627B6884229B5828
:10393C0008221A437B6884215A50A423FB181A6866
:10394C0080231B01134013D0A023FB181A6880237B
:10395C00DB0413400CD07B681B68802212011A62B6
:10396C007B6884229B5820221A437B6884215A50FE
:10397C007B6884229B58002B00D1FFE1A423FB1809
:10398C001B68202213400ED0A023FB181B6820229A
:10399C00134008D07B689B6E002B04D07B689B6E19
:1039AC007A68100098477B6884229B5894217A1877
:1039BC0013607B681B689B6840221340402B04D02B
:1039CC007B181B682822134047D07B68180000F036
:1039DC0079FE7B681B689B6840221340402B37D1D3
:1039EC00EFF310833B663B6E90203A181360012373
:1039FC007B667B6E83F31088C0467B681B689A6875
:103A0C007B681B6840218A439A603B181B68BB6625
:103A1C00BB6E83F31088C0467B685B6F002B12D0A3
:103A2C007B685B6F144A5A637B685B6F1800FDF709
:103A3C00DBFB031E1AD07B685B6F5A6B7B685B6F7A
:103A4C001800904712E07B68180000F0B5F90DE003
:103A5C007B68180000F0B0F908E07B68180000F0F3
:103A6C00ABF97B6884220021995087E1C04685E13F
:103A7C000F080000200100048B4900087B681B6EB6
:103A8C00012B00D039E1A423FB181B681022134032
:103A9C0000D132E1A023FB181B681022134000D187
:103AAC002BE17B681B6810221A627B681B689B6881
:103ABC0040221340402B00D09FE07B685B6F1B685B
:103ACC005A687E217B181A807B181B88002B00D12A
:103ADC0056E17B6858229B5A7A1812889A4200D376
:103AEC004EE17B687A185A2112885A527B685B6FB8
:103AFC009B69202B6FD0EFF310833B633B6BBB6751
:103B0C0001237B637B6B83F31088C0467B681B6847
:103B1C001A687B681B689E490A401A60BB6FBB63BE
:103B2C00BB6B83F31088C046EFF31083FB63FB6B16
:103B3C007B6701233B643B6C83F31088C0467B6836
:103B4C001B689A687B681B6801218A439A607B6FAB
:103B5C007B647B6C83F31088C046EFF31083BB64EB
:103B6C00BB6C3B670123FB64FB6C83F31088C04682
:103B7C007B681B689A687B681B6840218A439A6043
:103B8C003B6F3B653B6D83F31088C0467B6880229E
:103B9C00202199507B6800221A66EFF310837B6515
:103BAC007B6DFB660123BB65BB6D83F31088C04640
:103BBC007B681B681A687B681B6810218A431A6033
:103BCC00FB6EFB65FB6D83F31088C0467B685B6FF7
:103BDC001800FDF7D1FA7B6802225A667B685822DE
:103BEC009A5A7B685A215B5A9BB2D31A9AB27B6859
:103BFC001100180000F0E8F8C2E07B685822995ACE
:103C0C007B685A229B5A9AB28E203B188A1A1A80C9
:103C1C007B685A229B5A9BB2002B00D1B2E03B1816
:103C2C001B88002B00D1ADE0EFF31083FB60FB6829
:103C3C0088243A19136001233B613B6983F3108894
:103C4C00C0467B681B681A687B681B6851490A4030
:103C5C001A603B191B687B617B6983F31088C04633
:103C6C00EFF31083BB61BB6984243A191360012301
:103C7C00FB61FB6983F31088C0467B681B689A68FC
:103C8C007B681B6801218A439A603B191B683B6265
:103C9C003B6A83F31088C0467B68802220219950B0
:103CAC007B6800221A667B6800229A66EFF3108309
:103CBC007B627B6A80243A1913600123BB62BB6A66
:103CCC0083F31088C0467B681B681A687B681B6886
:103CDC0010218A431A603B191B68FB62FB6A83F351
:103CEC001088C0467B6802225A663B181A887B688B
:103CFC001100180000F068F844E0A423FB181A68BF
:103D0C0080235B03134010D09C23FB181A6880237C
:103D1C00DB03134009D07B681B68802252031A62B4
:103D2C007B68180000F06DFE2FE0A423FB181B68C5
:103D3C00802213400FD0A023FB181B688022134055
:103D4C0009D07B68DB6E002B1ED07B68DB6E7A683B
:103D5C001000984718E0A423FB181B68402213405E
:103D6C0013D0A023FB181B68402213400DD07B6896
:103D7C00180000F01BFE08E0C04606E0C04604E058
:103D8C00C04602E0C04600E0C046BD462BB090BD28
:103D9C00FFFEFFFFDFFEFFFF80B582B000AF786053
:103DAC00C046BD4602B080BD80B582B000AF786021
:103DBC00C046BD4602B080BD80B582B000AF786011
:103DCC00C046BD4602B080BD80B582B000AF786001
:103DDC000A00BB1C1A80C046BD4602B080BD000064
:103DEC0080B588B000AF78601E23FB1800221A70D3
:103DFC007B689A687B681B691A437B685B691A430A
:103E0C007B68DB6913437B617B681B681B68BE4A5C
:103E1C00134019007B681B687A690A431A607B6837
:103E2C001B685B68B94A134019007B68DA687B68C9
:103E3C001B680A435A607B689B697B617B681B6AC1
:103E4C007A6913437B617B681B689B68B04A13409B
:103E5C0019007B681B687A690A439A607B681B6847
:103E6C00AC4A934227D1AC4B1B6B03221340032B60
:103E7C000DD01BD8022B14D018D8002B02D0012B3C
:103E8C000AD013E01F23FB1800221A70BDE01F2379
:103E9C00FB1802221A70B8E01F23FB1804221A70B8
:103EAC00B3E01F23FB1808221A70AEE01F23FB1887
:103EBC0010221A70A9E07B681B68984A934234D18F
:103ECC00954B1A6BC0239B021340C0229202934263
:103EDC0017D0C0229202934222D88022920293429F
:103EEC0019D08022920293421AD8002B04D080223F
:103EFC00520293420AD013E01F23FB1800221A70BF
:103F0C0083E01F23FB1802221A707EE01F23FB188C
:103F1C0004221A7079E01F23FB1808221A7074E02F
:103F2C001F23FB1810221A706FE07B681B687C4AF9
:103F3C00934234D1784B1A6BC0231B031340C0221D
:103F4C001203934217D0C0221203934222D880222C
:103F5C001203934219D08022120393421AD8002BD9
:103F6C0004D08022D20293420AD013E01F23FB1804
:103F7C0000221A7049E01F23FB1802221A7044E039
:103F8C001F23FB1804221A703FE01F23FB18082282
:103F9C001A703AE01F23FB1810221A7035E07B6868
:103FAC001B68604A934204D11F23FB1800221A702D
:103FBC002BE07B681B685C4A934204D11F23FB18DF
:103FCC0000221A7021E07B681B68584A934204D186
:103FDC001F23FB1800221A7017E07B681B68544AD9
:103FEC00934204D11F23FB1800221A700DE07B684A
:103FFC001B68504A934204D11F23FB1800221A70ED
:10400C0003E01F23FB1810221A707B68DA698023E7
:10401C001B029A425CD11F23FB181B78082B15D06E
:10402C0018DC042B0DD015DC002B02D0022B05D094
:10403C0010E0FEF7B5F80300BB6112E03E4BBB612C
:10404C000FE0FEF731F80300BB610AE080231B028E
:10405C00BB6106E00023BB611E23FB1801221A7012
:10406C00C046BB69002B00D195E0BB695A007B6848
:10407C005B685B08D2187B685B6819001000FCF762
:10408C004DF803003B613B690F2B1CD93A69802327
:10409C005B029A4217D23B699AB20E203B180F2151
:1040AC008A431A803B695B089BB20722134099B282
:1040BC003B183A1812880A431A807B681B683A1816
:1040CC001288DA6067E01E23FB1801221A7062E086
:1040DC001F23FB181B78082B30D033DC042B0DD09E
:1040EC0030DC002B02D0022B05D02BE0FEF758F869
:1040FC000300BB612DE0104BBB612AE0FDF7D4FF40
:10410C000300BB6125E0C046F369FFEFFFCFFFFF63
:10411C00FFF4FFFF00380140001002400044004053
:10412C0000480040004C004000500040001401408A
:10413C0000180140001C014000127A0080231B0271
:10414C00BB6106E00023BB611E23FB1801221A7021
:10415C00C046BB69002B1ED07B685B685A08BB69E4
:10416C00D2187B685B6819001000FBF7D7FF0300BF
:10417C003B613B690F2B0AD93A6980235B029A4257
:10418C0005D23B699AB27B681B68DA6003E01E2398
:10419C00FB1801221A707B6800229A667B68002249
:1041AC00DA661E23FB181B781800BD4608B080BDCC
:1041BC0080B582B000AF78607B685B6A01221340E7
:1041CC000BD07B681B685B684A4A134019007B68FC
:1041DC009A6A7B681B680A435A607B685B6A022296
:1041EC0013400BD07B681B685B68434A1340190073
:1041FC007B68DA6A7B681B680A435A607B685B6A77
:10420C00042213400BD07B681B685B683B4A13404D
:10421C0019007B681A6B7B681B680A435A607B68C1
:10422C005B6A082213400BD07B681B685B68344ABE
:10423C00134019007B685A6B7B681B680A435A60F1
:10424C007B685B6A102213400BD07B681B689B68F1
:10425C002C4A134019007B689A6B7B681B680A43D5
:10426C009A607B685B6A202213400BD07B681B68CA
:10427C009B68254A134019007B68DA6B7B681B68C6
:10428C000A439A607B685B6A402213401DD07B68AE
:10429C001B685B681D4A134019007B681A6C7B68AD
:1042AC001B680A435A607B681A6C80235B039A4232
:1042BC000BD17B681B685B68154A134019007B683F
:1042CC005A6C7B681B680A435A607B685B6A802265
:1042DC0013400BD07B681B685B680E4A13401900B7
:1042EC007B689A6C7B681B680A435A60C046BD4663
:1042FC0002B080BDFFFFFDFFFFFFFEFFFFFFFBFFD6
:10430C00FF7FFFFFFFEFFFFFFFDFFFFFFFFFEFFF71
:10431C00FFFF9FFFFFFFF7FF80B592B002AF786001
:10432C007B68842200219950FCF790FD0300FB630D
:10433C007B681B681B6808221340082B2CD1FB6B75
:10434C00802291037868464A0092002200F08CF893
:10435C00031E21D0EFF310837B627B6ABB630123C6
:10436C00BB62BB6A83F31088C0467B681B681A6803
:10437C007B681B6880218A431A60BB6BFB62FB6AFB
:10438C0083F31088C0467B682022DA677B6878222A
:10439C000021995403235FE07B681B681B6804228F
:1043AC001340042B46D1FB6B8022D10378682C4A36
:1043BC000092002200F058F8031E3BD0EFF310835C
:1043CC00FB60FB687B6301233B613B6983F31088D3
:1043DC00C0467B681B681A687B681B6821490A40C9
:1043EC001A607B6B7B617B6983F31088C046EFF3AB
:1043FC001083BB61BB693B630123FB61FB6983F3E6
:10440C001088C0467B681B689A687B681B68012112
:10441C008A439A603B6B3B623B6A83F31088C046CD
:10442C007B688022202199507B6878220021995446
:10443C00032311E07B682022DA677B68802220212D
:10444C0099507B6800221A667B6800225A667B684A
:10445C0078220021995400231800BD4610B080BD6D
:10446C00FFFFFF01DFFEFFFF80B584B000AFF860F7
:10447C00B9603B60FB1D1A704BE0BB69013348D03F
:10448C00FCF7E4FC02003B68D31ABA699A4202D3E7
:10449C00BB69002B01D103234BE0FB681B681B6835
:1044AC000422134035D0FB681B68DB6908221340DB
:1044BC00082B11D1FB681B6808221A62FB681800D4
:1044CC0000F000F9FB68842208219950FB687822DF
:1044DC000021995401232CE0FB681B68DA698023C6
:1044EC001B011A4080231B019A4212D1FB681B68E6
:1044FC00802212011A62FB68180000F0E3F8FB68D6
:10450C00842220219950FB6878220021995403239E
:10451C000FE0FB681B68DB69BA681340BA68D31AF2
:10452C005A425341DBB21A00FB1D1B789A42A4D0AD
:10453C0000231800BD4604B080BD000080B590B0CB
:10454C0000AFF860B960BB1D1A80FB68BA685A6589
:10455C00FB68BA1D582112885A52FB68842200212C
:10456C009950FB68802222219950FB685B6F002BCD
:10457C0028D0FB685B6F3E4A9A62FB685B6F3D4AD2
:10458C00DA62FB685B6F3C4A1A63FB685B6F002264
:10459C005A63FB68586FFB681B6824331900FB686F
:1045AC005B6D1A00BB1D1B88FCF780FD031E09D038
:1045BC00FB68842210219950FB688022202199509D
:1045CC00012350E0FB681B69002B19D0EFF310831B
:1045DC00BB62BB6AFB630123FB62FB6A83F310883B
:1045EC00C046FB681B681A68FB681B688021490081
:1045FC000A431A60FB6B3B633B6B83F31088C0462A
:10460C00EFF310833B613B69BB6301237B617B69E7
:10461C0083F31088C046FB681B689A68FB681B68AC
:10462C0001210A439A60BB6BBB61BB6983F31088A1
:10463C00C046EFF31083FB61FB697B6301233B6294
:10464C003B6A83F31088C046FB681B689A68FB685A
:10465C001B6840210A439A607B6B7B627B6A83F305
:10466C001088C04600231800BD4610B080BDC0465F
:10467C0099470008C54800080749000880B586B06E
:10468C0000AF7860EFF31083BB60BB687B610123E4
:10469C00FB60FB6883F31088C0467B681B681A6854
:1046AC007B681B68C0218A431A607B693B613B694C
:1046BC0083F31088C0467B682022DA67C046BD466B
:1046CC0006B080BD80B58EB000AF7860EFF310837C
:1046DC007B617B697B630123BB61BB6983F31088BE
:1046EC00C0467B681B681A687B681B6826490A40B1
:1046FC001A607B6BFB61FB6983F31088C046EFF398
:10470C0010833B623B6A3B6301237B627B6A83F3CE
:10471C001088C0467B681B689A687B681B680121FF
:10472C008A439A603B6BBB62BB6A83F31088C046BA
:10473C007B681B6E012B18D1EFF31083BB60BB6839
:10474C00FB620123FB60FB6883F31088C0467B6827
:10475C001B681A687B681B6810218A431A60FB6A05
:10476C003B613B6983F31088C0467B688022202123
:10477C0099507B6800221A667B6800229A66C046B4
:10478C00BD460EB080BDC046DFFEFFFF80B594B0C5
:10479C0000AF78607B685B6AFB647B689B69202B4D
:1047AC006FD0FB6C5A2200219952EFF31083BB613E
:1047BC00BB69BB640123FB61FB6983F31088C046B2
:1047CC00FB6C1B681A68FB6C1B683A490A401A6040
:1047DC00BB6C3B623B6A83F31088C046EFF31083DB
:1047EC007B627B6A7B640123BB62BB6A83F31088A8
:1047FC00C046FB6C1B689A68FB6C1B6801218A43E2
:10480C009A607B6CFB62FB6A83F31088C046EFF303
:10481C0010833B633B6B3B6401237B637B6B83F3B8
:10482C001088C046FB6C1B689A68FB6C1B684021A7
:10483C008A439A603B6CBB63BB6B83F31088C046A6
:10484C00FB6C802220219950FB6C1B6E012B18D124
:10485C00EFF31083FB60FB68FB6301233B613B6957
:10486C0083F31088C046FB6C1B681A68FB6C1B68D2
:10487C0010218A431A60FB6B7B617B6983F3108880
:10488C00C046FB6C00225A66FB6C1B6E012B08D1D8
:10489C00FB6C58229A5AFB6C11001800FFF794FA23
:1048AC0003E0FB6C1800FCF71FF8C046BD4614B0C3
:1048BC0080BDC046FFFEFFFF80B584B000AF7860BE
:1048CC007B685B6AFB60FB6801225A66FB681B6EA7
:1048DC00012B0AD1FB6858229B5A5B089AB2FB68E1
:1048EC0011001800FFF770FA03E0FB681800FFF7DF
:1048FC005BFAC046BD4604B080BD80B586B000AF43
:10490C0078607B685B6A7B617B69DB6F3B617B6991
:10491C0080229B58FB607B691B689B68802213403C
:10492C00802B0AD13B69212B07D17B6952220021B4
:10493C0099527B691800FFF7A1FE7B691B689B6885
:10494C0040221340402B0AD1FB68222B07D17B69F4
:10495C005A22002199527B691800FFF7B3FE7B693C
:10496C0084229B5810221A437B6984215A507B69FC
:10497C001800FFF721FAC046BD4606B080BD80B5D1
:10498C0084B000AF78607B685B6AFB60FB685A227E
:10499C0000219952FB68522200219952FB681800A1
:1049AC00FFF70AFAC046BD4604B080BD80B586B09C
:1049BC0000AF7860EFF31083BB60BB687B610123B1
:1049CC00FB60FB6883F31088C0467B681B681A6821
:1049DC007B681B6840218A431A607B693B613B6999
:1049EC0083F31088C0467B682022DA677B6800223C
:1049FC00DA667B681800FFF7CFF9C046BD4606B0F3
:104A0C0080BD80B582B000AF7860C046BD4602B0B4
:104A1C0080BD00000EB400B50B499CB01DAB0290DC
:104A2C000690079104910948094904CB0591006847
:104A3C0002A9019300F0CCF90022029B1A701CB061
:104A4C0008BC03B01847C046FFFFFF7F980000204A
:104A5C000802FFFF0EB430B581239CB06A461FAC30
:104A6C009B0020CC938202900690FBF745FB0B4BEE
:104A7C006A460B9300230390079009480F931493F5
:104A8C00013BD38202A923002A000068019400F0A4
:104A9C00FBFA1CB030BC08BC03B01847B14A000884
:104AAC00980000200020704703008218934200D128
:104ABC00704719700133F9E7014B18687047C0460D
:104ACC009800002070B500260C4C0D4D641BA410F2
:104ADC00A64209D1002601F01FF90A4C0A4D641BAD
:104AEC00A410A64205D170BDB300EB58984701360F
:104AFC00EEE7B300EB5898470136F2E7DC5E0008AE
:104B0C00DC5E0008E05E0008DC5E00087047704761
:104B1C0070B50500002910D00C1F2368002B00DA9B
:104B2C00E418280000F0E2F81D4A1368002B05D1A8
:104B3C0063601460280000F0E1F870BDA34208D94E
:104B4C00206821188B42F3D119685B680918216021
:104B5C00EEE71A005B68002B01D0A342F9D911686B
:104B6C005018A0420BD120680918501811608342CC
:104B7C00E0D118685B68411811605360DAE7A04215
:104B8C0002D90C232B60D5E7206821188B4203D166
:104B9C0019685B680918216063605460CAE7C046F5
:104BAC007003002070B50F4E0D0031680400002911
:104BBC0002D100F043FF30602900200000F03EFFDE
:104BCC00431C0AD00323C51C9D43A84207D0291AB5
:104BDC00200000F033FF013001D101256D42280087
:104BEC0070BDC04674030020F7B50322CB1C934361
:104BFC00083306001F000C2B38D20C27B94237D8CB
:104C0C00300000F073F8384B00931B681C00002C2C
:104C1C0033D139003000FFF7C5FF0400431C5ED1CF
:104C2C00009B1C682500002D4ED1002C51D0236810
:104C3C002900E3183000019300F000FF019B834230
:104C4C0047D123683000FF1A3900FFF7ABFF013062
:104C5C003FD02368DB192360009B1B68002B40D0DE
:104C6C005A68A24233D100225A6014E0002BC5DAF4
:104C7C000C23002533602800FEBD2168C91B20D4FD
:104C8C000B2918D9E2192760A34212D1009B1A6094
:104C9C006368116053603000250000F02FF8072284
:104CAC000B35231D9543EA1A9D42E4D05B1BA350A0
:104CBC00E1E75A60ECE76268A342D5D1009B1A6029
:104CCC00E9E723006468A2E72C006D68ABE71300EA
:104CDC00C4E70C233000336000F010F8CBE72760FA
:104CEC00D9E75B60FFDEC0467003002010B50248B8
:104CFC00FFF70CFF10BDC0466C03002010B5024836
:104D0C00FFF705FF10BDC0466C030020F0B585B061
:104D1C00019303928E68019A07000C000B6896426F
:104D2C0031D88A899021C9000A4229D003202169EF
:104D3C005B1A029363694343DD0FED18019B0298E4
:104D4C0001331B186D10AB4200D91D00520529D53B
:104D5C0029003800FFF748FF061E2DD0029A216962
:104D6C0000F089FEA289194B1A4080231343A381BA
:104D7C00029B2661F61826606561019EED1AA560FE
:104D8C00019B9E4200D9019E32000399206800F0DD
:104D9C0041FE0020A3689B1BA36023689B19236022
:104DAC0005B0F0BD2A00380000F06EFE061EDFD103
:104DBC0038002169FFF7ACFE0C2301203B60A2896F
:104DCC0034331343A3814042EAE7C0467FFBFFFF25
:104DDC00F0B5A1B003901D008B890F0016001B06C7
:104DEC0011D50B69002B0ED14021FFF7FDFE386069
:104DFC003861002805D10C23039A0138136021B0C7
:104E0C00F0BD40237B61002308AC636120336376E3
:104E1C001033A376079535002B78002B01D0252B6A
:104E2C0048D1AB1B0593B5420BD032003900039827
:104E3C00FFF76CFF013000D1AFE06369059A9B1856
:104E4C0063612B78002B00D1A7E001220023524292
:104E5C00626004A9543252186E1C2360E360A36094
:104E6C001370A365554B052218003178059300F09B
:104E7C00F7FD751C00281FD12268D30604D55323D7
:104E8C0004A95B1820211970130704D5532304A916
:104E9C005B182B21197033782A2B16D03500002182
:104EAC000A20E3682A786E1C303A092A4ED9002968
:104EBC0011D117E00135AFE7059B2268C01A012319
:104ECC00834013432E002360CCE7079B191D1B68FE
:104EDC000791002B01DB0B9304E05B42E3600223A0
:104EEC00134323602B782E2B0AD16B782A2B35D1C8
:104EFC00079B02351A1D1B680792002B2BDB0993AD
:104F0C002F4E03223000297800F0AAFD002806D08D
:104F1C004023801B8340226801351343236029788A
:104F2C00062228486E1C217600F09AFD00283CD001
:104F3C00254B002B25D10722079B073393430833BE
:104F4C0007936369049A9B18636164E743433500D4
:104F5C0001219B18A6E701235B42D0E700230A201E
:104F6C001A000135636029786E1C3039092903D980
:104F7C00002BC5D00992C3E74243350001235218D8
:104F8C00F1E707AA009221003A00104B039800E0C9
:104F9C0000BF0490049B0133D3D1BB890D985B06F1
:104FAC0000D42CE70120404229E707AA00922100F7
:104FBC003A00064B039800F041FAEAE78C5D0008D2
:104FCC00925D0008965D000800000000194D000875
:104FDC0070B514004B1C03D101256D42280070BD27
:104FEC00938920229343626BA381CEB26368CDB2C6
:104FFC00002A10D0A26B9A4207DD2368013B236084
:10500C001E70636801336360E8E7210000F0C4FCA4
:10501C000028F2D0E0E721692268002907D09142EC
:10502C0005D2511E0878A84201D12160EAE7236419
:10503C002300443363630323A36323004633E263F7
:10504C001E7023600123DEE710B50C00496B0029AC
:10505C000ED023004433994201D0FFF759FD0020B4
:10506C00236C60636360834202D0E36B236010BDEA
:10507C002369012023600023A2896360203313433A
:10508C00A3814042F3E70000F0B5AE4C0600A54406
:10509C000C000021BE204691479103A94891AA49D2
:1050AC00400043AD2950C025A8496D0043A841518B
:1050BC0002931578002D00D141E1A54B0820595DD4
:1050CC0000930823571C0B4001421ED06368002B31
:1050DC0011DD236800991A788A5C08210A4201D1F3
:1050EC003A00E6E7479A013301324792626823603F
:1050FC00013A6260EAE7C02243AB52002100300063
:10510C009B5898470028E4D0EAE7252D62D14593B7
:10511C00439353782A2B02D11A3B4393971C3D009F
:10512C000A2229786B1C01930B00303B092B1ED9EA
:10513C00884F0322380000F093FC002806D001238E
:10514C00C01B8340439A019D134343936F1C2D78DE
:10515C00782D07D8572D11D8252D3BD035D8002DBB
:10516C0000D1E9E003234993073344936DE0459B59
:10517C00019D5343303B5B184593D2E728005838C8
:10518C002028EFD8FAF7C0FF4D00EEFFEEFF7F00AE
:10519C00EEFFEEFFEEFFEEFFEEFFEEFFEEFF8A00FE
:1051AC007D00240024002400EEFF5900EEFFEEFFEA
:1051BC00EEFFEEFF92005D004900EEFFEEFF900067
:1051CC00EEFF7D00EEFFEEFF4D00453D022DC9D8F0
:1051DC00052339E06368002B0DDD23681A78AA4299
:1051EC0000D0ACE0013362682360479B013A013385
:1051FC006260479374E7C02243AB52002100300039
:10520C009B5898470028E8D04698002800D08FE09B
:10521C000138A5239B009D44F0BD2023439A1343E2
:10522C0043938023439A9B0013434393102344934B
:10523C006E23AB429B415B4201E00023449303335A
:10524C0002E008234493043B49936368002B3CDD44
:10525C00439B5B0606D4236800991A788A5C082164
:10526C000A423CD1499B022B4EDC2200300002AB9F
:10527C0043A900F0F3F9012861D0022800D02FE7F0
:10528C00C2E70A23D3E7390003A800F049FB402307
:10529C00439A0700134343930123D5E74023439AD2
:1052AC00134343930023CFE70223CDE7439AD3065E
:1052BC0000D515E7029B4799181D02901B68D5076E
:1052CC0001D519800CE719600AE7C02243AB5200E4
:1052DC00210030009B5898470028B9D094E7479A92
:1052EC00013247926268013A6260002A02DD0133A2
:1052FC002360B0E7C02243AB5200210030009B5822
:10530C0098470028A7D07FE7042B06DC220030004A
:10531C0002AB43A900F000FAADE70F4B002B00D114
:10532C00DEE62200300002AB43A900E000BFA2E79A
:10533C00A3895B0600D46CE70120404269E74698DC
:10534C0067E7C0466CFDFFFFDD4F000855500008B5
:10535C00DB5D0008925D000800000000F7B5160048
:10536C0001938A680B690C000090934200DA1300D9
:10537C002200336043321278002A01D001333360AB
:10538C0023689B0602D533680233336022680623F8
:10539C0015001D401A4227D0230043331B785A1E98
:1053AC0093412268920630D4220001990098089DFE
:1053BC004332A847013025D006222368002513402C
:1053CC00042B05D13368E568ED1AEB43DB171D4060
:1053DC00A3682269934201DD9B1AED180026B542A1
:1053EC0020D1002010E00135E36832689B1AAB42F3
:1053FC00D2DD2200012301990098089F1932B84789
:10540C000130F0D101204042FEBD3020E118433183
:10541C00087021005A1C45310978A2184332023316
:10542C001170C1E72200012301990098089F1A32DC
:10543C00B8470130E6D00136D1E70000F0B58BB0AB
:10544C0006920A0043320793059004920A7E0C00E0
:10545C00109B782A09D8622A0BD8002A00D1BEE00A
:10546C007C490391582A00D193E0260042363270D1
:10547C0022E0100063381528F7D8FAF745FE16001D
:10548C001F00F6FFF6FFF6FFF6FF1F00F6FFF6FF14
:10549C00F6FFF6FFA30036008300F6FFF6FFB4001C
:1054AC00F6FF3600F6FFF6FF870026001A68423634
:1054BC00111D1960136833700123A2E01868096884
:1054CC00021D0D060BD505681A60002D03DA2D237D
:1054DC00049A6D4213705F4B0A2703931BE0056817
:1054EC001A604906F1D52DB2EFE70D681968081D51
:1054FC0018602E0601D50D6803E06D06FBD50D680E
:10550C00ADB2544B082703936F2A00D00237230007
:10551C00002243331A706368A360002B03DB042161
:10552C0022688A432260002D02D1049E002B0CD0ED
:10553C00049E28003900FAF777FE039B013E5B5C62
:10554C0033702B0005009F42F3D9082F09D1236833
:10555C00DB0706D5626823699A4202DC3023013EE0
:10556C003370049B9B1B2361079B210000930598C0
:10557C00069B09AAFFF7F2FE013047D101204042F9
:10558C000BB0F0BD202209680A4322607822324910
:10559C000391210045310A701968226820C9100650
:1055AC0002D4500600D5ADB21960D30702D5202322
:1055BC00134323601027002DA9D120222368934385
:1055CC002360A4E71A680D68101D496918601368F8
:1055DC002E0601D5196002E06D06FBD5198000235B
:1055EC00049E2361C0E71A68111D1960166800211A
:1055FC003000626800F034FA002801D0801B606033
:10560C00636823610023049A1370ADE732002369A9
:10561C0006990598079DA8470130AFD023689B07D2
:10562C0015D4099BE0689842AADA1800A8E7220072
:10563C00012306990598079E1932B04701309DD079
:10564C000135E368099A9B1AAB42F0DCE9E70025C7
:10565C00F7E7C0469D5D0008AE5D0008F7B5150084
:10566C008A680C000190002A05D189690132002951
:10567C0000D0023AA2602268D20603D41A68111D27
:10568C00196017680026A069002813D0012808D1DA
:10569C002B6862691B78D35C002B0BD1002E38D0A1
:1056AC0026E0022824D12B681A4A1B78D35C0822E6
:1056BC0013421DD1102223680136134203D12B68EB
:1056CC001B783B7001372A686B6801322A60A2682C
:1056DC00013B013A6B60A260002A09D0002BD2DC9E
:1056EC00C0235B002900E358019898470028CAD0D2
:1056FC0022681023110019401A4206D1E3680133C5
:10570C00E360A369002B00D03970002023699B193A
:10571C002361FEBDDB5D0008F0B58BB001937A4BC5
:10572C001600049007AAA1CBA1C2784A8B690C0081
:10573C000592032B01D0764B0593AE220020A36873
:10574C005200591E0390914205D95E3BFF3B0393D7
:10575C005E23FF33A36023001C330093D023002768
:10576C0022681B0113432360009B0293336807A834
:10577C001978BB000222185800F072F900282AD0C0
:10578C00012F61D16368002B06D108332268636056
:10579C00F933FF331343236023685E4A13402360BD
:1057AC00A3685A1EA260002B15D033685A1C3260B5
:1057BC001B78029A13707368551C013B7360029539
:1057CC00002B08DCC0235B003100E3580498984799
:1057DC00002800D080E00137032FC7D16368002B6D
:1057EC0001D10A3363601021002763686069C91A0C
:1057FC00494BC91800F094F8029DA36820680293E5
:10580C00002B40D0316863690A789B5C002B3AD03E
:10581C00302A29D180231B01184225D0039B013744
:10582C00002B05D01A00029B013A01330392A360AE
:10583C007368013B7360002B1DDD336801333360EB
:10584C00A368013BA360D8E7022FA9D1C021802314
:10585C002268C90011409B009942BFD1F13BFF3B2C
:10586C006360F03313439AE72C4B034023600B78AF
:10587C002B700135DCE7C0235B003100E358049842
:10588C0098470028DCD02368DB050ED5009B9D4291
:10589C0007D9BE23013D5B0032002978E3580498F8
:1058AC009847009B01209D4229D0216810230A00B3
:1058BC001A4019421CD12A70636800990498059EFD
:1058CC00B047019B22681B68910607D501991A1DE8
:1058DC000A601B68186008E00027D4E7191DD6077A
:1058EC000FD5019A11601B681880E3680133E360DF
:1058FC000020009BED1A2369ED195B1923610BB095
:10590C00F0BD019A1160E4E7485D0008015C0008F5
:10591C000D5D0008FFFAFFFFBF5D0008FFF6FFFFFB
:10592C00F0B50B7804005E2B19D000224D1C210021
:10593C00601CFF300A7001318142FBD1681E002BC4
:10594C000CD001212D264A402800E2540178451C38
:10595C002D290CD05D291DD0002904D1F0BD0122C8
:10596C004B788D1CE3E70B00EEE73300ECE7417856
:10597C005D29FAD08B42F8DC1D00023001356255EE
:10598C00A942FBDC00255F1C8B4201DACD1A013DDC
:10599C007B19DBE72800E1E70B00F7B54D6B4433CF
:1059AC000C009D421CD18026F6003100FFF71CF93B
:1059BC00002802D101204042FEBD23006063A66393
:1059CC0046331A78104BC254230045331A780F4BC8
:1059DC00C2542A780E4BC254C01820600020EBE74A
:1059EC008E6B290073001A00019300F04DF8051E10
:1059FC00E0D0871901003200380000F03CF8019B20
:105A0C0027606563A363E9E7FF030000FE03000062
:105A1C00FD03000010B5884202D98B18984203D3BD
:105A2C00002307E08B5C8354013AFBD210BDCC5CA5
:105A3C00C45401339A42FAD1F8E70000002370B540
:105A4C00064D040008002B60FBF740F9431C03D102
:105A5C002B68002B00D0236070BDC046680300206B
:105A6C00C9B28218904201D10020704703788B4252
:105A7C00FBD00130F6E7002310B59A4200D110BDDF
:105A8C00CC5CC4540133F8E7F7B507000E001400E2
:105A9C00002905D11100FFF7A7F805002800FEBD6D
:105AAC00002A03D1FFF734F82500F7E700F02CF9B2
:105ABC000190844203D835004308A342EED3210061
:105ACC003800FFF791F8051EE8D0019B22009C429C
